{
  "contractName": "Coinflip",
  "abi": [
    {
      "inputs": [],
      "payable": true,
      "stateMutability": "payable",
      "type": "constructor"
    },
    {
      "anonymous": false,
      "inputs": [
        {
          "indexed": false,
          "internalType": "string",
          "name": "description",
          "type": "string"
        }
      ],
      "name": "LogNewProvableQuery",
      "type": "event"
    },
    {
      "anonymous": false,
      "inputs": [
        {
          "indexed": false,
          "internalType": "string",
          "name": "",
          "type": "string"
        }
      ],
      "name": "coinFlipped",
      "type": "event"
    },
    {
      "anonymous": false,
      "inputs": [
        {
          "indexed": false,
          "internalType": "bool",
          "name": "",
          "type": "bool"
        }
      ],
      "name": "coindflipResult",
      "type": "event"
    },
    {
      "anonymous": false,
      "inputs": [
        {
          "indexed": false,
          "internalType": "uint256",
          "name": "randomNumber",
          "type": "uint256"
        }
      ],
      "name": "generatedRandomNumber",
      "type": "event"
    },
    {
      "constant": true,
      "inputs": [],
      "name": "balance",
      "outputs": [
        {
          "internalType": "uint256",
          "name": "",
          "type": "uint256"
        }
      ],
      "payable": false,
      "stateMutability": "view",
      "type": "function"
    },
    {
      "constant": true,
      "inputs": [],
      "name": "latestNumber",
      "outputs": [
        {
          "internalType": "uint256",
          "name": "",
          "type": "uint256"
        }
      ],
      "payable": false,
      "stateMutability": "view",
      "type": "function"
    },
    {
      "constant": false,
      "inputs": [],
      "name": "coinflipSet",
      "outputs": [],
      "payable": true,
      "stateMutability": "payable",
      "type": "function"
    },
    {
      "constant": false,
      "inputs": [
        {
          "internalType": "bytes32",
          "name": "_myid",
          "type": "bytes32"
        },
        {
          "internalType": "string",
          "name": "_result",
          "type": "string"
        }
      ],
      "name": "__callback",
      "outputs": [],
      "payable": false,
      "stateMutability": "nonpayable",
      "type": "function"
    },
    {
      "constant": false,
      "inputs": [
        {
          "internalType": "bytes32",
          "name": "_queryId",
          "type": "bytes32"
        },
        {
          "internalType": "string",
          "name": "_result",
          "type": "string"
        },
        {
          "internalType": "bytes",
          "name": "_proof",
          "type": "bytes"
        }
      ],
      "name": "__callback",
      "outputs": [],
      "payable": false,
      "stateMutability": "nonpayable",
      "type": "function"
    },
    {
      "constant": false,
      "inputs": [
        {
          "internalType": "uint256",
          "name": "betBalance",
          "type": "uint256"
        }
      ],
      "name": "update",
      "outputs": [],
      "payable": true,
      "stateMutability": "payable",
      "type": "function"
    },
    {
      "constant": false,
      "inputs": [],
      "name": "withdrawAll",
      "outputs": [
        {
          "internalType": "uint256",
          "name": "",
          "type": "uint256"
        }
      ],
      "payable": false,
      "stateMutability": "nonpayable",
      "type": "function"
    }
  ],
  "bytecode": "0x608060405233600760006101000a81548173ffffffffffffffffffffffffffffffffffffffff021916908373ffffffffffffffffffffffffffffffffffffffff160217905550346006819055506200005e60006200006460201b60201c565b62002011565b6000809050600062030d40905060006200008783600184620000ed60201b60201c565b90506200009b8185620006c060201b60201c565b7fc4dc360d0a9c0677a3379ae0a3d81e887f761e65fdf3d7e00859d1bcd3c47389604051808060200182810382526036815260200180620045206036913960400191505060405180910390a150505050565b6000808311801562000100575060208311155b6200010a57600080fd5b600a84029350606060016040519080825280601f01601f191660200182016040528015620001475781602001600182028038833980820191505090505b5090508360f81b816000815181106200015c57fe5b60200101907effffffffffffffffffffffffffffffffffffffffffffffffffffffffffffff1916908160001a905350606060206040519080825280601f01601f191660200182016040528015620001c25781602001600182028038833980820191505090505b509050606060206040519080825280601f01601f191660200182016040528015620001fc5781602001600182028038833980820191505090505b5090506000620002116200071a60201b60201c565b905060208352424118600143034018602084015260208252806020830152606060206040519080825280601f01601f191660200182016040528015620002665781602001600182028038833980820191505090505b509050886020820152606060086040519080825280601f01601f191660200182016040528015620002a65781602001600182028038833980820191505090505b509050620002c1826018600884600062000a5360201b60201c565b50620002cc62001f04565b60405180608001604052808781526020018881526020018681526020018481525090506000620003396040518060400160405280600681526020017f72616e646f6d0000000000000000000000000000000000000000000000000000815250838c62000ab560201b60201c565b9050606060086040519080825280601f01601f191660200182016040528015620003725781602001600182028038833980820191505090505b50905060208401517f0100000000000000000000000000000000000000000000000000000000000000810460278301537e01000000000000000000000000000000000000000000000000000000000000810460268301537d010000000000000000000000000000000000000000000000000000000000810460258301537c0100000000000000000000000000000000000000000000000000000000810460248301537b01000000000000000000000000000000000000000000000000000000810460238301537a010000000000000000000000000000000000000000000000000000810460228301537901000000000000000000000000000000000000000000000000008104602183015378010000000000000000000000000000000000000000000000008104602083015350620006ad828285600160048110620004b357fe5b6020020151600287600060048110620004c857fe5b60200201516040518082805190602001908083835b60208310620005025780518252602082019150602081019050602083039250620004dd565b6001836020036101000a038019825116818451168082178552505050505050905001915050602060405180830381855afa15801562000545573d6000803e3d6000fd5b5050506040513d60208110156200055b57600080fd5b8101908080519060200190929190505050876002600481106200057a57fe5b60200201516040516020018085805190602001908083835b60208310620005b7578051825260208201915060208101905060208303925062000592565b6001836020036101000a03801982511681845116808217855250505050505090500184805190602001908083835b602083106200060a5780518252602082019150602081019050602083039250620005e5565b6001836020036101000a03801982511681845116808217855250505050505090500183815260200182805190602001908083835b602083106200066357805182526020820191506020810190506020830392506200063e565b6001836020036101000a0380198251168184511680821785525050505050509050019450505050506040516020818303038152906040528051906020012062000e4d60201b60201c565b8199505050505050505050509392505050565b620006ca62001f2c565b8181600001818152505080600560008581526020019081526020016000206000820151816000015560208201518160010160006101000a81548160ff021916908315150217905550905050505050565b60008073ffffffffffffffffffffffffffffffffffffffff16600160009054906101000a900473ffffffffffffffffffffffffffffffffffffffff1673ffffffffffffffffffffffffffffffffffffffff161480620007ab57506000620007a9600160009054906101000a900473ffffffffffffffffffffffffffffffffffffffff1662000e6960201b60201c565b145b15620007c557620007c3600062000e7460201b60201c565b505b600160009054906101000a900473ffffffffffffffffffffffffffffffffffffffff1673ffffffffffffffffffffffffffffffffffffffff166338cc48316040518163ffffffff1660e01b8152600401602060405180830381600087803b1580156200083057600080fd5b505af115801562000845573d6000803e3d6000fd5b505050506040513d60208110156200085c57600080fd5b810190808051906020019092919050505073ffffffffffffffffffffffffffffffffffffffff166000809054906101000a900473ffffffffffffffffffffffffffffffffffffffff1673ffffffffffffffffffffffffffffffffffffffff1614620009a957600160009054906101000a900473ffffffffffffffffffffffffffffffffffffffff1673ffffffffffffffffffffffffffffffffffffffff166338cc48316040518163ffffffff1660e01b8152600401602060405180830381600087803b1580156200092c57600080fd5b505af115801562000941573d6000803e3d6000fd5b505050506040513d60208110156200095857600080fd5b81019080805190602001909291905050506000806101000a81548173ffffffffffffffffffffffffffffffffffffffff021916908373ffffffffffffffffffffffffffffffffffffffff1602179055505b6000809054906101000a900473ffffffffffffffffffffffffffffffffffffffff1673ffffffffffffffffffffffffffffffffffffffff1663abaa5f3e6040518163ffffffff1660e01b815260040160206040518083038186803b15801562000a1157600080fd5b505afa15801562000a26573d6000803e3d6000fd5b505050506040513d602081101562000a3d57600080fd5b8101908080519060200190929190505050905090565b606060008285019050808451101562000a6b57600080fd5b600086602001905060008460200190505b86886020010182101562000aa6578189015180828801525060208201915060208101905062000a7c565b85935050505095945050505050565b60008073ffffffffffffffffffffffffffffffffffffffff16600160009054906101000a900473ffffffffffffffffffffffffffffffffffffffff1673ffffffffffffffffffffffffffffffffffffffff16148062000b465750600062000b44600160009054906101000a900473ffffffffffffffffffffffffffffffffffffffff1662000e6960201b60201c565b145b1562000b605762000b5e600062000e7460201b60201c565b505b600160009054906101000a900473ffffffffffffffffffffffffffffffffffffffff1673ffffffffffffffffffffffffffffffffffffffff166338cc48316040518163ffffffff1660e01b8152600401602060405180830381600087803b15801562000bcb57600080fd5b505af115801562000be0573d6000803e3d6000fd5b505050506040513d602081101562000bf757600080fd5b810190808051906020019092919050505073ffffffffffffffffffffffffffffffffffffffff166000809054906101000a900473ffffffffffffffffffffffffffffffffffffffff1673ffffffffffffffffffffffffffffffffffffffff161462000d4457600160009054906101000a900473ffffffffffffffffffffffffffffffffffffffff1673ffffffffffffffffffffffffffffffffffffffff166338cc48316040518163ffffffff1660e01b8152600401602060405180830381600087803b15801562000cc757600080fd5b505af115801562000cdc573d6000803e3d6000fd5b505050506040513d602081101562000cf357600080fd5b81019080805190602001909291905050506000806101000a81548173ffffffffffffffffffffffffffffffffffffffff021916908373ffffffffffffffffffffffffffffffffffffffff1602179055505b6060600460405190808252806020026020018201604052801562000d7d57816020015b606081526020019060019003908162000d675790505b5090508360006004811062000d8e57fe5b60200201518160008151811062000da157fe5b60200260200101819052508360016004811062000dba57fe5b60200201518160018151811062000dcd57fe5b60200260200101819052508360026004811062000de657fe5b60200201518160028151811062000df957fe5b60200260200101819052508360036004811062000e1257fe5b60200201518160038151811062000e2557fe5b602002602001018190525062000e4385828562000e8d60201b60201c565b9150509392505050565b8060036000848152602001908152602001600020819055505050565b6000813b9050919050565b600062000e866200142160201b60201c565b9050919050565b60008073ffffffffffffffffffffffffffffffffffffffff16600160009054906101000a900473ffffffffffffffffffffffffffffffffffffffff1673ffffffffffffffffffffffffffffffffffffffff16148062000f1e5750600062000f1c600160009054906101000a900473ffffffffffffffffffffffffffffffffffffffff1662000e6960201b60201c565b145b1562000f385762000f36600062000e7460201b60201c565b505b600160009054906101000a900473ffffffffffffffffffffffffffffffffffffffff1673ffffffffffffffffffffffffffffffffffffffff166338cc48316040518163ffffffff1660e01b8152600401602060405180830381600087803b15801562000fa357600080fd5b505af115801562000fb8573d6000803e3d6000fd5b505050506040513d602081101562000fcf57600080fd5b810190808051906020019092919050505073ffffffffffffffffffffffffffffffffffffffff166000809054906101000a900473ffffffffffffffffffffffffffffffffffffffff1673ffffffffffffffffffffffffffffffffffffffff16146200111c57600160009054906101000a900473ffffffffffffffffffffffffffffffffffffffff1673ffffffffffffffffffffffffffffffffffffffff166338cc48316040518163ffffffff1660e01b8152600401602060405180830381600087803b1580156200109f57600080fd5b505af1158015620010b4573d6000803e3d6000fd5b505050506040513d6020811015620010cb57600080fd5b81019080805190602001909291905050506000806101000a81548173ffffffffffffffffffffffffffffffffffffffff021916908373ffffffffffffffffffffffffffffffffffffffff1602179055505b60008060009054906101000a900473ffffffffffffffffffffffffffffffffffffffff1673ffffffffffffffffffffffffffffffffffffffff16632ef3accc86856040518363ffffffff1660e01b81526004018080602001838152602001828103825284818151815260200191508051906020019080838360005b83811015620011b457808201518184015260208101905062001197565b50505050905090810190601f168015620011e25780820380516001836020036101000a031916815260200191505b509350505050602060405180830381600087803b1580156200120357600080fd5b505af115801562001218573d6000803e3d6000fd5b505050506040513d60208110156200122f57600080fd5b81019080805190602001909291905050509050823a02670de0b6b3a76400000181111562001264576000801b9150506200141a565b60606200127785620019f060201b60201c565b90506000809054906101000a900473ffffffffffffffffffffffffffffffffffffffff1673ffffffffffffffffffffffffffffffffffffffff1663c55c1cb68360008985896040518663ffffffff1660e01b8152600401808581526020018060200180602001848152602001838103835286818151815260200191508051906020019080838360005b838110156200131d57808201518184015260208101905062001300565b50505050905090810190601f1680156200134b5780820380516001836020036101000a031916815260200191505b50838103825285818151815260200191508051906020019080838360005b838110156200138657808201518184015260208101905062001369565b50505050905090810190601f168015620013b45780820380516001836020036101000a031916815260200191505b5096505050505050506020604051808303818588803b158015620013d757600080fd5b505af1158015620013ec573d6000803e3d6000fd5b50505050506040513d60208110156200140457600080fd5b8101908080519060200190929190505050925050505b9392505050565b60008062001449731d3b2638a7cc9f2cb3d298a3da7a90b67e5506ed62000e6960201b60201c565b1115620014f557731d3b2638a7cc9f2cb3d298a3da7a90b67e5506ed600160006101000a81548173ffffffffffffffffffffffffffffffffffffffff021916908373ffffffffffffffffffffffffffffffffffffffff160217905550620014eb6040518060400160405280600b81526020017f6574685f6d61696e6e657400000000000000000000000000000000000000000081525062001aab60201b60201c565b60019050620019ed565b60006200151c73c03a2615d5efaf5f49f60b7bb6583eaec212fdf162000e6960201b60201c565b1115620015c85773c03a2615d5efaf5f49f60b7bb6583eaec212fdf1600160006101000a81548173ffffffffffffffffffffffffffffffffffffffff021916908373ffffffffffffffffffffffffffffffffffffffff160217905550620015be6040518060400160405280600c81526020017f6574685f726f707374656e33000000000000000000000000000000000000000081525062001aab60201b60201c565b60019050620019ed565b6000620015ef73b7a07bcf2ba2f2703b24c0691b5278999c59ac7e62000e6960201b60201c565b11156200169b5773b7a07bcf2ba2f2703b24c0691b5278999c59ac7e600160006101000a81548173ffffffffffffffffffffffffffffffffffffffff021916908373ffffffffffffffffffffffffffffffffffffffff160217905550620016916040518060400160405280600981526020017f6574685f6b6f76616e000000000000000000000000000000000000000000000081525062001aab60201b60201c565b60019050620019ed565b6000620016c273146500cfd35b22e4a392fe0adc06de1a1368ed4862000e6960201b60201c565b11156200176e5773146500cfd35b22e4a392fe0adc06de1a1368ed48600160006101000a81548173ffffffffffffffffffffffffffffffffffffffff021916908373ffffffffffffffffffffffffffffffffffffffff160217905550620017646040518060400160405280600b81526020017f6574685f72696e6b65627900000000000000000000000000000000000000000081525062001aab60201b60201c565b60019050620019ed565b60006200179573a2998efd205fb9d4b4963afb70778d6354ad3a4162000e6960201b60201c565b1115620018415773a2998efd205fb9d4b4963afb70778d6354ad3a41600160006101000a81548173ffffffffffffffffffffffffffffffffffffffff021916908373ffffffffffffffffffffffffffffffffffffffff160217905550620018376040518060400160405280600a81526020017f6574685f676f65726c690000000000000000000000000000000000000000000081525062001aab60201b60201c565b60019050620019ed565b600062001868736f485c8bf6fc43ea212e93bbf8ce046c7f1cb47562000e6960201b60201c565b1115620018ce57736f485c8bf6fc43ea212e93bbf8ce046c7f1cb475600160006101000a81548173ffffffffffffffffffffffffffffffffffffffff021916908373ffffffffffffffffffffffffffffffffffffffff16021790555060019050620019ed565b6000620018f57320e12a1f859b3feae5fb2a0a32c18f5a65555bbf62000e6960201b60201c565b11156200195b577320e12a1f859b3feae5fb2a0a32c18f5a65555bbf600160006101000a81548173ffffffffffffffffffffffffffffffffffffffff021916908373ffffffffffffffffffffffffffffffffffffffff16021790555060019050620019ed565b6000620019827351efaf4c8b3c9afbd5ab9f4bbc82784ab6ef8faa62000e6960201b60201c565b1115620019e8577351efaf4c8b3c9afbd5ab9f4bbc82784ab6ef8faa600160006101000a81548173ffffffffffffffffffffffffffffffffffffffff021916908373ffffffffffffffffffffffffffffffffffffffff16021790555060019050620019ed565b600090505b90565b606062001a0262001ac760201b60201c565b62001a0c62001f48565b62001a258161040062001ad360201b62001fea1760201c565b62001a3b8162001b2060201b620020341760201c565b60008090505b835181101562001a875762001a7984828151811062001a5c57fe5b60200260200101518362001b3660201b620020421790919060201c565b808060010191505062001a41565b5062001a9e8162001b6a60201b620020671760201c565b8060000151915050919050565b806002908051906020019062001ac392919062001f62565b5050565b60405180590338823950565b600081905060006020828162001ae557fe5b061462001b00576020818162001af757fe5b06602003810190505b808360200181815250506040518084526000815281810160405250505050565b62001b3381600462001b8060201b60201c565b50565b62001b4b826002835162001ba860201b60201c565b62001b65818362001d3060201b620021d61790919060201c565b505050565b62001b7d81600762001b8060201b60201c565b50565b62001ba4601f60058360ff16901b178362001df060201b620022811790919060201c565b5050565b6017811162001bdd5762001bd78160058460ff16901b60ff16178462001df060201b620022811790919060201c565b62001d2b565b60ff811162001c2e5762001c0a601860058460ff16901b178462001df060201b620022811790919060201c565b62001c278160018562001e3960201b620022c1179092919060201c565b5062001d2a565b61ffff811162001c805762001c5c601960058460ff16901b178462001df060201b620022811790919060201c565b62001c798160028562001e3960201b620022c1179092919060201c565b5062001d29565b63ffffffff811162001cd45762001cb0601a60058460ff16901b178462001df060201b620022811790919060201c565b62001ccd8160048562001e3960201b620022c1179092919060201c565b5062001d28565b67ffffffffffffffff811162001d275762001d08601b60058460ff16901b178462001df060201b620022811790919060201c565b62001d258160088562001e3960201b620022c1179092919060201c565b505b5b5b5b5b505050565b62001d3a62001f48565b8260200151836000015151835101111562001d7b5762001d7a83600262001d6d8660200151865162001eb360201b60201c565b0262001ed160201b60201c565b5b60008060008451905085518051602081830101945086518101825260208701935050505b6020811062001dc4578151835260208301925060208201915060208103905062001d9f565b60006001826020036101000a039050801983511681855116818117865250508694505050505092915050565b8160200151600183600001515101111562001e1f5762001e1e82600284602001510262001ed160201b60201c565b5b815180516020818301018381536001820183525050505050565b62001e4362001f48565b83602001518460000151518301111562001e825762001e8184600262001e7487602001518662001eb360201b60201c565b0262001ed160201b60201c565b5b60006001836101000a0390508451805184818301018684198251161781528582018352505050849150509392505050565b60008183111562001ec75782905062001ecb565b8190505b92915050565b60608260000151905062001eec838362001ad360201b60201c565b62001efe838262001d3060201b60201c565b50505050565b60405180608001604052806004905b606081526020019060019003908162001f135790505090565b6040518060400160405280600081526020016000151581525090565b604051806040016040528060608152602001600081525090565b828054600181600116156101000203166002900490600052602060002090601f016020900481019282601f1062001fa557805160ff191683800117855562001fd6565b8280016001018555821562001fd6579182015b8281111562001fd557825182559160200191906001019062001fb8565b5b50905062001fe5919062001fe9565b5090565b6200200e91905b808211156200200a57600081600090555060010162001ff0565b5090565b90565b6124ff80620020216000396000f3fe6080604052600436106100705760003560e01c806382ab890a1161004e57806382ab890a146102ba578063853828b6146102e8578063b69ef8a814610313578063dc34b0aa1461033e57610070565b8063044987341461007557806327dc297e1461007f57806338bbfa5014610151575b600080fd5b61007d610369565b005b34801561008b57600080fd5b5061014f600480360360408110156100a257600080fd5b8101908080359060200190929190803590602001906401000000008111156100c957600080fd5b8201836020820111156100db57600080fd5b803590602001918460018302840111640100000000831117156100fd57600080fd5b91908080601f016020809104026020016040519081016040528093929190818152602001838380828437600081840152601f19601f8201169050808301925050505050505091929192905050506103fa565b005b34801561015d57600080fd5b506102b86004803603606081101561017457600080fd5b81019080803590602001909291908035906020019064010000000081111561019b57600080fd5b8201836020820111156101ad57600080fd5b803590602001918460018302840111640100000000831117156101cf57600080fd5b91908080601f016020809104026020016040519081016040528093929190818152602001838380828437600081840152601f19601f8201169050808301925050505050505091929192908035906020019064010000000081111561023257600080fd5b82018360208201111561024457600080fd5b8035906020019184600183028401116401000000008311171561026657600080fd5b91908080601f016020809104026020016040519081016040528093929190818152602001838380828437600081840152601f19601f82011690508083019250505050505050919291929050505061043d565b005b6102e6600480360360208110156102d057600080fd5b810190808035906020019092919050505061050e565b005b3480156102f457600080fd5b506102fd610586565b6040518082815260200191505060405180910390f35b34801561031f57600080fd5b5061032861063f565b6040518082815260200191505060405180910390f35b34801561034a57600080fd5b50610353610645565b6040518082815260200191505060405180910390f35b64174876e8008034101561037c57600080fd5b64174876e80034101561038e57600080fd5b60065434111561039d57600080fd5b60003490506103ab8161050e565b7f79f2583b0099055c19887b52f17379021335aa8da188941490e5979061047c2d60405180806020018281038252602b81526020018061246a602b913960400191505060405180910390a15050565b610439828260006040519080825280601f01601f1916602001820160405280156104335781602001600182028038833980820191505090505b5061043d565b5050565b60006002836040516020018082805190602001908083835b602083106104785780518252602082019150602081019050602083039250610455565b6001836020036101000a0380198251168184511680821785525050505050509050019150506040516020818303038152906040528051906020012060001c816104bd57fe5b069050806008819055506104d1848261064b565b7fc13d60fe9dffdb6908d2d446cd18134373a51db0738ee04f296eeb9128121cbc816040518082815260200191505060405180910390a150505050565b6000809050600062030d409050600061052983600184610777565b90506105358185610d12565b7fc4dc360d0a9c0677a3379ae0a3d81e887f761e65fdf3d7e00859d1bcd3c473896040518080602001828103825260368152602001806124956036913960400191505060405180910390a150505050565b6000600760009054906101000a900473ffffffffffffffffffffffffffffffffffffffff1673ffffffffffffffffffffffffffffffffffffffff163373ffffffffffffffffffffffffffffffffffffffff16146105e257600080fd5b6000600654905060006006819055503373ffffffffffffffffffffffffffffffffffffffff166108fc829081150290604051600060405180830381858888f19350505050158015610637573d6000803e3d6000fd5b508091505090565b60065481565b60085481565b6000600560008481526020019081526020016000206000015490506000809050600083905060018114156106f6576001600760146101000a81548160ff021916908315150217905550600283029150826006600082825403925050819055503373ffffffffffffffffffffffffffffffffffffffff166108fc839081150290604051600060405180830381858888f193505050501580156106f0573d6000803e3d6000fd5b50610726565b6000600760146101000a81548160ff02191690831515021790555060009150826006600082825401925050819055505b7fa43f529f51c4a295bcaab8e62bd2ee0234f73d73772a3695f1295830673cd6d3600760149054906101000a900460ff16604051808215151515815260200191505060405180910390a15050505050565b60008083118015610789575060208311155b61079257600080fd5b600a84029350606060016040519080825280601f01601f1916602001820160405280156107ce5781602001600182028038833980820191505090505b5090508360f81b816000815181106107e257fe5b60200101907effffffffffffffffffffffffffffffffffffffffffffffffffffffffffffff1916908160001a905350606060206040519080825280601f01601f1916602001820160405280156108475781602001600182028038833980820191505090505b509050606060206040519080825280601f01601f1916602001820160405280156108805781602001600182028038833980820191505090505b509050600061088d610d6a565b905060208352424118600143034018602084015260208252806020830152606060206040519080825280601f01601f1916602001820160405280156108e15781602001600182028038833980820191505090505b509050886020820152606060086040519080825280601f01601f1916602001820160405280156109205781602001600182028038833980820191505090505b5090506109338260186008846000611087565b5061093c612367565b604051806080016040528087815260200188815260200186815260200184815250905060006109a16040518060400160405280600681526020017f72616e646f6d0000000000000000000000000000000000000000000000000000815250838c6110e6565b9050606060086040519080825280601f01601f1916602001820160405280156109d95781602001600182028038833980820191505090505b50905060208401517f0100000000000000000000000000000000000000000000000000000000000000810460278301537e01000000000000000000000000000000000000000000000000000000000000810460268301537d010000000000000000000000000000000000000000000000000000000000810460258301537c0100000000000000000000000000000000000000000000000000000000810460248301537b01000000000000000000000000000000000000000000000000000000810460238301537a010000000000000000000000000000000000000000000000000000810460228301537901000000000000000000000000000000000000000000000000008104602183015378010000000000000000000000000000000000000000000000008104602083015350610cff828285600160048110610b1857fe5b6020020151600287600060048110610b2c57fe5b60200201516040518082805190602001908083835b60208310610b645780518252602082019150602081019050602083039250610b41565b6001836020036101000a038019825116818451168082178552505050505050905001915050602060405180830381855afa158015610ba6573d6000803e3d6000fd5b5050506040513d6020811015610bbb57600080fd5b810190808051906020019092919050505087600260048110610bd957fe5b60200201516040516020018085805190602001908083835b60208310610c145780518252602082019150602081019050602083039250610bf1565b6001836020036101000a03801982511681845116808217855250505050505090500184805190602001908083835b60208310610c655780518252602082019150602081019050602083039250610c42565b6001836020036101000a03801982511681845116808217855250505050505090500183815260200182805190602001908083835b60208310610cbc5780518252602082019150602081019050602083039250610c99565b6001836020036101000a03801982511681845116808217855250505050505090500194505050505060405160208183030381529060405280519060200120611453565b8199505050505050505050509392505050565b610d1a61238e565b8181600001818152505080600560008581526020019081526020016000206000820151816000015560208201518160010160006101000a81548160ff021916908315150217905550905050505050565b60008073ffffffffffffffffffffffffffffffffffffffff16600160009054906101000a900473ffffffffffffffffffffffffffffffffffffffff1673ffffffffffffffffffffffffffffffffffffffff161480610df257506000610df0600160009054906101000a900473ffffffffffffffffffffffffffffffffffffffff1661146f565b145b15610e0357610e01600061147a565b505b600160009054906101000a900473ffffffffffffffffffffffffffffffffffffffff1673ffffffffffffffffffffffffffffffffffffffff166338cc48316040518163ffffffff1660e01b8152600401602060405180830381600087803b158015610e6d57600080fd5b505af1158015610e81573d6000803e3d6000fd5b505050506040513d6020811015610e9757600080fd5b810190808051906020019092919050505073ffffffffffffffffffffffffffffffffffffffff166000809054906101000a900473ffffffffffffffffffffffffffffffffffffffff1673ffffffffffffffffffffffffffffffffffffffff1614610fe057600160009054906101000a900473ffffffffffffffffffffffffffffffffffffffff1673ffffffffffffffffffffffffffffffffffffffff166338cc48316040518163ffffffff1660e01b8152600401602060405180830381600087803b158015610f6557600080fd5b505af1158015610f79573d6000803e3d6000fd5b505050506040513d6020811015610f8f57600080fd5b81019080805190602001909291905050506000806101000a81548173ffffffffffffffffffffffffffffffffffffffff021916908373ffffffffffffffffffffffffffffffffffffffff1602179055505b6000809054906101000a900473ffffffffffffffffffffffffffffffffffffffff1673ffffffffffffffffffffffffffffffffffffffff1663abaa5f3e6040518163ffffffff1660e01b815260040160206040518083038186803b15801561104757600080fd5b505afa15801561105b573d6000803e3d6000fd5b505050506040513d602081101561107157600080fd5b8101908080519060200190929190505050905090565b606060008285019050808451101561109e57600080fd5b600086602001905060008460200190505b8688602001018210156110d757818901518082880152506020820191506020810190506110af565b85935050505095945050505050565b60008073ffffffffffffffffffffffffffffffffffffffff16600160009054906101000a900473ffffffffffffffffffffffffffffffffffffffff1673ffffffffffffffffffffffffffffffffffffffff16148061116e5750600061116c600160009054906101000a900473ffffffffffffffffffffffffffffffffffffffff1661146f565b145b1561117f5761117d600061147a565b505b600160009054906101000a900473ffffffffffffffffffffffffffffffffffffffff1673ffffffffffffffffffffffffffffffffffffffff166338cc48316040518163ffffffff1660e01b8152600401602060405180830381600087803b1580156111e957600080fd5b505af11580156111fd573d6000803e3d6000fd5b505050506040513d602081101561121357600080fd5b810190808051906020019092919050505073ffffffffffffffffffffffffffffffffffffffff166000809054906101000a900473ffffffffffffffffffffffffffffffffffffffff1673ffffffffffffffffffffffffffffffffffffffff161461135c57600160009054906101000a900473ffffffffffffffffffffffffffffffffffffffff1673ffffffffffffffffffffffffffffffffffffffff166338cc48316040518163ffffffff1660e01b8152600401602060405180830381600087803b1580156112e157600080fd5b505af11580156112f5573d6000803e3d6000fd5b505050506040513d602081101561130b57600080fd5b81019080805190602001909291905050506000806101000a81548173ffffffffffffffffffffffffffffffffffffffff021916908373ffffffffffffffffffffffffffffffffffffffff1602179055505b6060600460405190808252806020026020018201604052801561139357816020015b606081526020019060019003908161137e5790505b509050836000600481106113a357fe5b6020020151816000815181106113b557fe5b6020026020010181905250836001600481106113cd57fe5b6020020151816001815181106113df57fe5b6020026020010181905250836002600481106113f757fe5b60200201518160028151811061140957fe5b60200260200101819052508360036004811061142157fe5b60200201518160038151811061143357fe5b602002602001018190525061144985828561148b565b9150509392505050565b8060036000848152602001908152602001600020819055505050565b6000813b9050919050565b60006114846119ed565b9050919050565b60008073ffffffffffffffffffffffffffffffffffffffff16600160009054906101000a900473ffffffffffffffffffffffffffffffffffffffff1673ffffffffffffffffffffffffffffffffffffffff16148061151357506000611511600160009054906101000a900473ffffffffffffffffffffffffffffffffffffffff1661146f565b145b1561152457611522600061147a565b505b600160009054906101000a900473ffffffffffffffffffffffffffffffffffffffff1673ffffffffffffffffffffffffffffffffffffffff166338cc48316040518163ffffffff1660e01b8152600401602060405180830381600087803b15801561158e57600080fd5b505af11580156115a2573d6000803e3d6000fd5b505050506040513d60208110156115b857600080fd5b810190808051906020019092919050505073ffffffffffffffffffffffffffffffffffffffff166000809054906101000a900473ffffffffffffffffffffffffffffffffffffffff1673ffffffffffffffffffffffffffffffffffffffff161461170157600160009054906101000a900473ffffffffffffffffffffffffffffffffffffffff1673ffffffffffffffffffffffffffffffffffffffff166338cc48316040518163ffffffff1660e01b8152600401602060405180830381600087803b15801561168657600080fd5b505af115801561169a573d6000803e3d6000fd5b505050506040513d60208110156116b057600080fd5b81019080805190602001909291905050506000806101000a81548173ffffffffffffffffffffffffffffffffffffffff021916908373ffffffffffffffffffffffffffffffffffffffff1602179055505b60008060009054906101000a900473ffffffffffffffffffffffffffffffffffffffff1673ffffffffffffffffffffffffffffffffffffffff16632ef3accc86856040518363ffffffff1660e01b81526004018080602001838152602001828103825284818151815260200191508051906020019080838360005b8381101561179757808201518184015260208101905061177c565b50505050905090810190601f1680156117c45780820380516001836020036101000a031916815260200191505b509350505050602060405180830381600087803b1580156117e457600080fd5b505af11580156117f8573d6000803e3d6000fd5b505050506040513d602081101561180e57600080fd5b81019080805190602001909291905050509050823a02670de0b6b3a764000001811115611841576000801b9150506119e6565b606061184c85611f44565b90506000809054906101000a900473ffffffffffffffffffffffffffffffffffffffff1673ffffffffffffffffffffffffffffffffffffffff1663c55c1cb68360008985896040518663ffffffff1660e01b8152600401808581526020018060200180602001848152602001838103835286818151815260200191508051906020019080838360005b838110156118f05780820151818401526020810190506118d5565b50505050905090810190601f16801561191d5780820380516001836020036101000a031916815260200191505b50838103825285818151815260200191508051906020019080838360005b8381101561195657808201518184015260208101905061193b565b50505050905090810190601f1680156119835780820380516001836020036101000a031916815260200191505b5096505050505050506020604051808303818588803b1580156119a557600080fd5b505af11580156119b9573d6000803e3d6000fd5b50505050506040513d60208110156119d057600080fd5b8101908080519060200190929190505050925050505b9392505050565b600080611a0d731d3b2638a7cc9f2cb3d298a3da7a90b67e5506ed61146f565b1115611aaf57731d3b2638a7cc9f2cb3d298a3da7a90b67e5506ed600160006101000a81548173ffffffffffffffffffffffffffffffffffffffff021916908373ffffffffffffffffffffffffffffffffffffffff160217905550611aa66040518060400160405280600b81526020017f6574685f6d61696e6e6574000000000000000000000000000000000000000000815250611fc4565b60019050611f41565b6000611ace73c03a2615d5efaf5f49f60b7bb6583eaec212fdf161146f565b1115611b705773c03a2615d5efaf5f49f60b7bb6583eaec212fdf1600160006101000a81548173ffffffffffffffffffffffffffffffffffffffff021916908373ffffffffffffffffffffffffffffffffffffffff160217905550611b676040518060400160405280600c81526020017f6574685f726f707374656e330000000000000000000000000000000000000000815250611fc4565b60019050611f41565b6000611b8f73b7a07bcf2ba2f2703b24c0691b5278999c59ac7e61146f565b1115611c315773b7a07bcf2ba2f2703b24c0691b5278999c59ac7e600160006101000a81548173ffffffffffffffffffffffffffffffffffffffff021916908373ffffffffffffffffffffffffffffffffffffffff160217905550611c286040518060400160405280600981526020017f6574685f6b6f76616e0000000000000000000000000000000000000000000000815250611fc4565b60019050611f41565b6000611c5073146500cfd35b22e4a392fe0adc06de1a1368ed4861146f565b1115611cf25773146500cfd35b22e4a392fe0adc06de1a1368ed48600160006101000a81548173ffffffffffffffffffffffffffffffffffffffff021916908373ffffffffffffffffffffffffffffffffffffffff160217905550611ce96040518060400160405280600b81526020017f6574685f72696e6b656279000000000000000000000000000000000000000000815250611fc4565b60019050611f41565b6000611d1173a2998efd205fb9d4b4963afb70778d6354ad3a4161146f565b1115611db35773a2998efd205fb9d4b4963afb70778d6354ad3a41600160006101000a81548173ffffffffffffffffffffffffffffffffffffffff021916908373ffffffffffffffffffffffffffffffffffffffff160217905550611daa6040518060400160405280600a81526020017f6574685f676f65726c6900000000000000000000000000000000000000000000815250611fc4565b60019050611f41565b6000611dd2736f485c8bf6fc43ea212e93bbf8ce046c7f1cb47561146f565b1115611e3657736f485c8bf6fc43ea212e93bbf8ce046c7f1cb475600160006101000a81548173ffffffffffffffffffffffffffffffffffffffff021916908373ffffffffffffffffffffffffffffffffffffffff16021790555060019050611f41565b6000611e557320e12a1f859b3feae5fb2a0a32c18f5a65555bbf61146f565b1115611eb9577320e12a1f859b3feae5fb2a0a32c18f5a65555bbf600160006101000a81548173ffffffffffffffffffffffffffffffffffffffff021916908373ffffffffffffffffffffffffffffffffffffffff16021790555060019050611f41565b6000611ed87351efaf4c8b3c9afbd5ab9f4bbc82784ab6ef8faa61146f565b1115611f3c577351efaf4c8b3c9afbd5ab9f4bbc82784ab6ef8faa600160006101000a81548173ffffffffffffffffffffffffffffffffffffffff021916908373ffffffffffffffffffffffffffffffffffffffff16021790555060019050611f41565b600090505b90565b6060611f4e611fde565b611f566123aa565b611f6281610400611fea565b611f6b81612034565b60008090505b8351811015611fad57611fa0848281518110611f8957fe5b60200260200101518361204290919063ffffffff16565b8080600101915050611f71565b50611fb781612067565b8060000151915050919050565b8060029080519060200190611fda9291906123c4565b5050565b60405180590338823950565b6000819050600060208281611ffb57fe5b0614612014576020818161200b57fe5b06602003810190505b808360200181815250506040518084526000815281810160405250505050565b61203f816004612075565b50565b61204f8260028351612096565b61206281836121d690919063ffffffff16565b505050565b612072816007612075565b50565b612092601f60058360ff16901b178361228190919063ffffffff16565b5050565b601781116120c2576120bd8160058460ff16901b60ff16178461228190919063ffffffff16565b6121d1565b60ff8111612103576120e7601860058460ff16901b178461228190919063ffffffff16565b6120fd816001856122c19092919063ffffffff16565b506121d0565b61ffff811161214557612129601960058460ff16901b178461228190919063ffffffff16565b61213f816002856122c19092919063ffffffff16565b506121cf565b63ffffffff81116121895761216d601a60058460ff16901b178461228190919063ffffffff16565b612183816004856122c19092919063ffffffff16565b506121ce565b67ffffffffffffffff81116121cd576121b5601b60058460ff16901b178461228190919063ffffffff16565b6121cb816008856122c19092919063ffffffff16565b505b5b5b5b5b505050565b6121de6123aa565b8260200151836000015151835101111561220e5761220d83600261220786602001518651612328565b02612344565b5b60008060008451905085518051602081830101945086518101825260208701935050505b602081106122555781518352602083019250602082019150602081039050612232565b60006001826020036101000a039050801983511681855116818117865250508694505050505092915050565b816020015160018360000151510111156122a7576122a6826002846020015102612344565b5b815180516020818301018381536001820183525050505050565b6122c96123aa565b8360200151846000015151830111156122f7576122f68460026122f0876020015186612328565b02612344565b5b60006001836101000a0390508451805184818301018684198251161781528582018352505050849150509392505050565b60008183111561233a5782905061233e565b8190505b92915050565b6060826000015190506123578383611fea565b61236183826121d6565b50505050565b60405180608001604052806004905b60608152602001906001900390816123765790505090565b6040518060400160405280600081526020016000151581525090565b604051806040016040528060608152602001600081525090565b828054600181600116156101000203166002900490600052602060002090601f016020900481019282601f1061240557805160ff1916838001178555612433565b82800160010185558215612433579182015b82811115612432578251825591602001919060010190612417565b5b5090506124409190612444565b5090565b61246691905b8082111561246257600081600090555060010161244a565b5090565b9056fe436f696e666c697053657428292066756e6374696f6e207375636365737366756c7920657865637574656450726f7661626c65207175657279207761732073656e742c207374616e64696e6720627920666f722074686520616e737765722e2e2ea265627a7a72315820586d22b32ed79534fcd164bea018cf109bf2f96ce61cbbc8b5911ced143a775e64736f6c634300050c003250726f7661626c65207175657279207761732073656e742c207374616e64696e6720627920666f722074686520616e737765722e2e2e",
  "source": "import \"./provableAPI.sol\";\r\n\r\npragma solidity  0.5.12;\r\n\r\ncontract Coinflip is usingProvable{\r\n\r\n  struct Player {\r\n    uint betPlayerBalance;\r\n    bool playerResult;\r\n  }\r\n\r\n  mapping(bytes32 => Player) private player_id;\r\n\r\n  uint public balance;\r\n  address internal owner;\r\n  bool win_loose;\r\n\r\n  uint256 constant NUM_RANDOM_BYTES_REQUESTED = 1;\r\n  uint256 public latestNumber;\r\n\r\n  constructor() public payable {\r\n    owner = msg.sender;\r\n    balance = msg.value;\r\n    update(0);\r\n  }\r\n\r\n  modifier costs(uint cost){\r\n      require(msg.value >= cost);\r\n      _;\r\n  }\r\n\r\n  modifier onlyOwner(){\r\n      require(msg.sender == owner);\r\n      _;\r\n  }\r\n\r\n  event LogNewProvableQuery(string description);\r\n  event generatedRandomNumber(uint256 randomNumber);\r\n\r\n  event coinFlipped(string);\r\n  event coindflipResult(bool);\r\n\r\n  function coinflipSet() public payable costs(100000000000 wei){\r\n    require(msg.value >= 100000000000 wei);\r\n    require(msg.value <= balance);\r\n    uint betBalance = msg.value;\r\n\r\n    update(betBalance);\r\n\r\n    emit coinFlipped(\"CoinflipSet() function successfuly executed\");\r\n  }\r\n\r\n  function coinflipGet(bytes32 _queryId, uint256 _randomNumber) private {\r\n    uint betBalance = player_id[_queryId].betPlayerBalance;\r\n    uint toTransafer = 0;\r\n    uint luck = _randomNumber;\r\n\r\n    if(luck == 1){\r\n      win_loose = true;\r\n      toTransafer = betBalance *2;\r\n      balance -= betBalance;\r\n      msg.sender.transfer(toTransafer);\r\n    }\r\n    else{\r\n        win_loose = false;\r\n        toTransafer = 0;\r\n        balance += betBalance;\r\n    }\r\n    emit coindflipResult(win_loose);\r\n  }\r\n\r\n  function __callback(bytes32 _queryId, string memory _result, bytes memory _proof) public {\r\n    //require(msg.sender == provable_cbAddress());\r\n    uint256 randomNumber = uint256(keccak256(abi.encodePacked(_result))) % 2;\r\n    latestNumber = randomNumber;\r\n    coinflipGet(_queryId, randomNumber);\r\n    emit generatedRandomNumber(randomNumber);\r\n  }\r\n\r\n  function update(uint betBalance) payable public {\r\n    uint256 QUERY_EXECUTION_DELAY = 0;\r\n    uint256 GAS_FOR_CALLBACK = 200000;\r\n    //bytes32 queryId = testRandom();\r\n\r\n    bytes32 queryId = provable_newRandomDSQuery(\r\n      QUERY_EXECUTION_DELAY,\r\n      NUM_RANDOM_BYTES_REQUESTED,\r\n      GAS_FOR_CALLBACK\r\n    );\r\n\r\n    insertPlayer(queryId, betBalance);\r\n    emit LogNewProvableQuery(\"Provable query was sent, standing by for the answer...\");\r\n  }\r\n\r\n\r\n  /* function testRandom() public returns(bytes32){\r\n    bytes32 newqueryId = bytes32(keccak256(abi.encodePacked(msg.sender)));\r\n    __callback(newqueryId, \"1\", bytes(\"test\"));\r\n    return newqueryId;\r\n  } */\r\n\r\n  function insertPlayer(bytes32 _queryId, uint _betBalance) private {\r\n    Player memory newPlayer;\r\n    newPlayer.betPlayerBalance = _betBalance;\r\n    player_id[_queryId] = newPlayer;\r\n  }\r\n\r\n  function withdrawAll() public onlyOwner returns(uint){\r\n    uint toTransfer = balance;\r\n    balance = 0;\r\n    msg.sender.transfer(toTransfer);\r\n    return toTransfer;\r\n  }\r\n}\r\n",
  "sourcePath": "C:/Users/Rostyslav/Documents/Programming/Coinflipping/contracts/Coinflip.sol",
  "compiler": {
    "name": "solc",
    "version": "0.5.12+commit.7709ece9.Emscripten.clang"
  },
  "schemaVersion": "3.0.16",
  "updatedAt": "2020-10-19T20:39:37.962Z",
  "devdoc": {
    "methods": {
      "__callback(bytes32,string)": {
        "details": "The following `__callback` functions are just placeholders ideally     meant to be defined in child contract when proofs are used.     The function bodies simply silence compiler warnings."
      }
    }
  },
  "userdoc": {
    "methods": {}
  }
}