{
  "contractName": "Coinflip",
  "abi": [
    {
      "inputs": [],
      "payable": true,
      "stateMutability": "payable",
      "type": "constructor"
    },
    {
      "anonymous": false,
      "inputs": [
        {
          "indexed": false,
          "internalType": "string",
          "name": "description",
          "type": "string"
        }
      ],
      "name": "LogNewProvableQuery",
      "type": "event"
    },
    {
      "anonymous": false,
      "inputs": [
        {
          "indexed": false,
          "internalType": "bytes32",
          "name": "ID",
          "type": "bytes32"
        },
        {
          "indexed": false,
          "internalType": "uint256",
          "name": "bettingBalance",
          "type": "uint256"
        },
        {
          "indexed": false,
          "internalType": "bool",
          "name": "Active",
          "type": "bool"
        },
        {
          "indexed": false,
          "internalType": "address",
          "name": "AddressPlaying",
          "type": "address"
        },
        {
          "indexed": false,
          "internalType": "uint256",
          "name": "Result",
          "type": "uint256"
        }
      ],
      "name": "PlayerInserted",
      "type": "event"
    },
    {
      "anonymous": false,
      "inputs": [
        {
          "indexed": false,
          "internalType": "string",
          "name": "",
          "type": "string"
        }
      ],
      "name": "coinFlipped",
      "type": "event"
    },
    {
      "anonymous": false,
      "inputs": [
        {
          "indexed": false,
          "internalType": "bool",
          "name": "result",
          "type": "bool"
        },
        {
          "indexed": false,
          "internalType": "uint256",
          "name": "Player_Bet",
          "type": "uint256"
        },
        {
          "indexed": false,
          "internalType": "bool",
          "name": "Callback_Returned",
          "type": "bool"
        }
      ],
      "name": "coindflipResult",
      "type": "event"
    },
    {
      "anonymous": false,
      "inputs": [
        {
          "indexed": false,
          "internalType": "uint256",
          "name": "randomNumber",
          "type": "uint256"
        },
        {
          "indexed": false,
          "internalType": "bytes32",
          "name": "Player_ID",
          "type": "bytes32"
        }
      ],
      "name": "generatedRandomNumber",
      "type": "event"
    },
    {
      "constant": true,
      "inputs": [],
      "name": "balance",
      "outputs": [
        {
          "internalType": "uint256",
          "name": "",
          "type": "uint256"
        }
      ],
      "payable": false,
      "stateMutability": "view",
      "type": "function"
    },
    {
      "constant": true,
      "inputs": [],
      "name": "latestNumber",
      "outputs": [
        {
          "internalType": "uint256",
          "name": "",
          "type": "uint256"
        }
      ],
      "payable": false,
      "stateMutability": "view",
      "type": "function"
    },
    {
      "constant": true,
      "inputs": [],
      "name": "win_loose",
      "outputs": [
        {
          "internalType": "bool",
          "name": "",
          "type": "bool"
        }
      ],
      "payable": false,
      "stateMutability": "view",
      "type": "function"
    },
    {
      "constant": false,
      "inputs": [],
      "name": "coinflipSet",
      "outputs": [],
      "payable": true,
      "stateMutability": "payable",
      "type": "function"
    },
    {
      "constant": false,
      "inputs": [
        {
          "internalType": "uint256",
          "name": "_betBalance",
          "type": "uint256"
        },
        {
          "internalType": "address",
          "name": "_addressPlayig",
          "type": "address"
        }
      ],
      "name": "update",
      "outputs": [],
      "payable": true,
      "stateMutability": "payable",
      "type": "function"
    },
    {
      "constant": false,
      "inputs": [
        {
          "internalType": "bytes32",
          "name": "_myid",
          "type": "bytes32"
        },
        {
          "internalType": "string",
          "name": "_result",
          "type": "string"
        }
      ],
      "name": "__callback",
      "outputs": [],
      "payable": false,
      "stateMutability": "nonpayable",
      "type": "function"
    },
    {
      "constant": false,
      "inputs": [
        {
          "internalType": "bytes32",
          "name": "_queryId",
          "type": "bytes32"
        },
        {
          "internalType": "string",
          "name": "_result",
          "type": "string"
        },
        {
          "internalType": "bytes",
          "name": "_proof",
          "type": "bytes"
        }
      ],
      "name": "__callback",
      "outputs": [],
      "payable": false,
      "stateMutability": "nonpayable",
      "type": "function"
    },
    {
      "constant": false,
      "inputs": [],
      "name": "coinflipGet",
      "outputs": [
        {
          "internalType": "bool",
          "name": "",
          "type": "bool"
        }
      ],
      "payable": false,
      "stateMutability": "nonpayable",
      "type": "function"
    },
    {
      "constant": false,
      "inputs": [],
      "name": "withdrawAll",
      "outputs": [
        {
          "internalType": "uint256",
          "name": "",
          "type": "uint256"
        }
      ],
      "payable": false,
      "stateMutability": "nonpayable",
      "type": "function"
    }
  ],
  "bytecode": "0x608060405233600960006101000a81548173ffffffffffffffffffffffffffffffffffffffff021916908373ffffffffffffffffffffffffffffffffffffffff160217905550346008819055506200007360007303992365b313433960ead13fc56a9e650b6a07bb6200007960201b60201c565b62002648565b6000809050600062030d4090503073ffffffffffffffffffffffffffffffffffffffff1631620000c96040518060600160405280602b815260200162005c39602b9139836200023160201b60201c565b111562000122577fc4dc360d0a9c0677a3379ae0a3d81e887f761e65fdf3d7e00859d1bcd3c4738960405180806020018281038252604781526020018062005bbd6047913960600191505060405180910390a16200022b565b7fc4dc360d0a9c0677a3379ae0a3d81e887f761e65fdf3d7e00859d1bcd3c4738960405180806020018281038252603581526020018062005c046035913960400191505060405180910390a160006200018483600184620005ea60201b60201c565b905080600660003373ffffffffffffffffffffffffffffffffffffffff1673ffffffffffffffffffffffffffffffffffffffff168152602001908152602001600020819055507fc4dc360d0a9c0677a3379ae0a3d81e887f761e65fdf3d7e00859d1bcd3c4738960405180806020018281038252603681526020018062005c646036913960400191505060405180910390a16200022981868662000bbd60201b60201c565b505b50505050565b60008073ffffffffffffffffffffffffffffffffffffffff16600160009054906101000a900473ffffffffffffffffffffffffffffffffffffffff1673ffffffffffffffffffffffffffffffffffffffff161480620002c257506000620002c0600160009054906101000a900473ffffffffffffffffffffffffffffffffffffffff1662000d6d60201b60201c565b145b15620002dc57620002da600062000d7860201b60201c565b505b600160009054906101000a900473ffffffffffffffffffffffffffffffffffffffff1673ffffffffffffffffffffffffffffffffffffffff166338cc48316040518163ffffffff1660e01b8152600401602060405180830381600087803b1580156200034757600080fd5b505af11580156200035c573d6000803e3d6000fd5b505050506040513d60208110156200037357600080fd5b810190808051906020019092919050505073ffffffffffffffffffffffffffffffffffffffff166000809054906101000a900473ffffffffffffffffffffffffffffffffffffffff1673ffffffffffffffffffffffffffffffffffffffff1614620004c057600160009054906101000a900473ffffffffffffffffffffffffffffffffffffffff1673ffffffffffffffffffffffffffffffffffffffff166338cc48316040518163ffffffff1660e01b8152600401602060405180830381600087803b1580156200044357600080fd5b505af115801562000458573d6000803e3d6000fd5b505050506040513d60208110156200046f57600080fd5b81019080805190602001909291905050506000806101000a81548173ffffffffffffffffffffffffffffffffffffffff021916908373ffffffffffffffffffffffffffffffffffffffff1602179055505b6000809054906101000a900473ffffffffffffffffffffffffffffffffffffffff1673ffffffffffffffffffffffffffffffffffffffff16632ef3accc84846040518363ffffffff1660e01b81526004018080602001838152602001828103825284818151815260200191508051906020019080838360005b838110156200055657808201518184015260208101905062000539565b50505050905090810190601f168015620005845780820380516001836020036101000a031916815260200191505b509350505050602060405180830381600087803b158015620005a557600080fd5b505af1158015620005ba573d6000803e3d6000fd5b505050506040513d6020811015620005d157600080fd5b8101908080519060200190929190505050905092915050565b60008083118015620005fd575060208311155b6200060757600080fd5b600a84029350606060016040519080825280601f01601f191660200182016040528015620006445781602001600182028038833980820191505090505b5090508360f81b816000815181106200065957fe5b60200101907effffffffffffffffffffffffffffffffffffffffffffffffffffffffffffff1916908160001a905350606060206040519080825280601f01601f191660200182016040528015620006bf5781602001600182028038833980820191505090505b509050606060206040519080825280601f01601f191660200182016040528015620006f95781602001600182028038833980820191505090505b50905060006200070e62000d9160201b60201c565b905060208352424118600143034018602084015260208252806020830152606060206040519080825280601f01601f191660200182016040528015620007635781602001600182028038833980820191505090505b509050886020820152606060086040519080825280601f01601f191660200182016040528015620007a35781602001600182028038833980820191505090505b509050620007be8260186008846000620010ca60201b60201c565b50620007c962002557565b60405180608001604052808781526020018881526020018681526020018481525090506000620008366040518060400160405280600681526020017f72616e646f6d0000000000000000000000000000000000000000000000000000815250838c6200112c60201b60201c565b9050606060086040519080825280601f01601f1916602001820160405280156200086f5781602001600182028038833980820191505090505b50905060208401517f0100000000000000000000000000000000000000000000000000000000000000810460278301537e01000000000000000000000000000000000000000000000000000000000000810460268301537d010000000000000000000000000000000000000000000000000000000000810460258301537c0100000000000000000000000000000000000000000000000000000000810460248301537b01000000000000000000000000000000000000000000000000000000810460238301537a01000000000000000000000000000000000000000000000000000081046022830153790100000000000000000000000000000000000000000000000000810460218301537801000000000000000000000000000000000000000000000000810460208301535062000baa828285600160048110620009b057fe5b6020020151600287600060048110620009c557fe5b60200201516040518082805190602001908083835b60208310620009ff5780518252602082019150602081019050602083039250620009da565b6001836020036101000a038019825116818451168082178552505050505050905001915050602060405180830381855afa15801562000a42573d6000803e3d6000fd5b5050506040513d602081101562000a5857600080fd5b81019080805190602001909291905050508760026004811062000a7757fe5b60200201516040516020018085805190602001908083835b6020831062000ab4578051825260208201915060208101905060208303925062000a8f565b6001836020036101000a03801982511681845116808217855250505050505090500184805190602001908083835b6020831062000b07578051825260208201915060208101905060208303925062000ae2565b6001836020036101000a03801982511681845116808217855250505050505090500183815260200182805190602001908083835b6020831062000b60578051825260208201915060208101905060208303925062000b3b565b6001836020036101000a03801982511681845116808217855250505050505090500194505050505060405160208183030381529060405280519060200120620014c460201b60201c565b8199505050505050505050509392505050565b81600560008581526020019081526020016000206000018190555060016005600085815260200190815260200160002060020160006101000a81548160ff021916908315150217905550806005600085815260200190815260200160002060020160026101000a81548173ffffffffffffffffffffffffffffffffffffffff021916908373ffffffffffffffffffffffffffffffffffffffff1602179055507f0c457e259dd611aa51fc5b8f8b996de09aaedc524462a3e88c3e32f86d5bea728360056000868152602001908152602001600020600001546005600087815260200190815260200160002060020160009054906101000a900460ff166005600088815260200190815260200160002060020160029054906101000a900473ffffffffffffffffffffffffffffffffffffffff16600560008981526020019081526020016000206001015460405180868152602001858152602001841515151581526020018373ffffffffffffffffffffffffffffffffffffffff1673ffffffffffffffffffffffffffffffffffffffff1681526020018281526020019550505050505060405180910390a1505050565b6000813b9050919050565b600062000d8a620014e060201b60201c565b9050919050565b60008073ffffffffffffffffffffffffffffffffffffffff16600160009054906101000a900473ffffffffffffffffffffffffffffffffffffffff1673ffffffffffffffffffffffffffffffffffffffff16148062000e225750600062000e20600160009054906101000a900473ffffffffffffffffffffffffffffffffffffffff1662000d6d60201b60201c565b145b1562000e3c5762000e3a600062000d7860201b60201c565b505b600160009054906101000a900473ffffffffffffffffffffffffffffffffffffffff1673ffffffffffffffffffffffffffffffffffffffff166338cc48316040518163ffffffff1660e01b8152600401602060405180830381600087803b15801562000ea757600080fd5b505af115801562000ebc573d6000803e3d6000fd5b505050506040513d602081101562000ed357600080fd5b810190808051906020019092919050505073ffffffffffffffffffffffffffffffffffffffff166000809054906101000a900473ffffffffffffffffffffffffffffffffffffffff1673ffffffffffffffffffffffffffffffffffffffff16146200102057600160009054906101000a900473ffffffffffffffffffffffffffffffffffffffff1673ffffffffffffffffffffffffffffffffffffffff166338cc48316040518163ffffffff1660e01b8152600401602060405180830381600087803b15801562000fa357600080fd5b505af115801562000fb8573d6000803e3d6000fd5b505050506040513d602081101562000fcf57600080fd5b81019080805190602001909291905050506000806101000a81548173ffffffffffffffffffffffffffffffffffffffff021916908373ffffffffffffffffffffffffffffffffffffffff1602179055505b6000809054906101000a900473ffffffffffffffffffffffffffffffffffffffff1673ffffffffffffffffffffffffffffffffffffffff1663abaa5f3e6040518163ffffffff1660e01b815260040160206040518083038186803b1580156200108857600080fd5b505afa1580156200109d573d6000803e3d6000fd5b505050506040513d6020811015620010b457600080fd5b8101908080519060200190929190505050905090565b6060600082850190508084511015620010e257600080fd5b600086602001905060008460200190505b8688602001018210156200111d5781890151808288015250602082019150602081019050620010f3565b85935050505095945050505050565b60008073ffffffffffffffffffffffffffffffffffffffff16600160009054906101000a900473ffffffffffffffffffffffffffffffffffffffff1673ffffffffffffffffffffffffffffffffffffffff161480620011bd57506000620011bb600160009054906101000a900473ffffffffffffffffffffffffffffffffffffffff1662000d6d60201b60201c565b145b15620011d757620011d5600062000d7860201b60201c565b505b600160009054906101000a900473ffffffffffffffffffffffffffffffffffffffff1673ffffffffffffffffffffffffffffffffffffffff166338cc48316040518163ffffffff1660e01b8152600401602060405180830381600087803b1580156200124257600080fd5b505af115801562001257573d6000803e3d6000fd5b505050506040513d60208110156200126e57600080fd5b810190808051906020019092919050505073ffffffffffffffffffffffffffffffffffffffff166000809054906101000a900473ffffffffffffffffffffffffffffffffffffffff1673ffffffffffffffffffffffffffffffffffffffff1614620013bb57600160009054906101000a900473ffffffffffffffffffffffffffffffffffffffff1673ffffffffffffffffffffffffffffffffffffffff166338cc48316040518163ffffffff1660e01b8152600401602060405180830381600087803b1580156200133e57600080fd5b505af115801562001353573d6000803e3d6000fd5b505050506040513d60208110156200136a57600080fd5b81019080805190602001909291905050506000806101000a81548173ffffffffffffffffffffffffffffffffffffffff021916908373ffffffffffffffffffffffffffffffffffffffff1602179055505b60606004604051908082528060200260200182016040528015620013f457816020015b6060815260200190600190039081620013de5790505b509050836000600481106200140557fe5b6020020151816000815181106200141857fe5b6020026020010181905250836001600481106200143157fe5b6020020151816001815181106200144457fe5b6020026020010181905250836002600481106200145d57fe5b6020020151816002815181106200147057fe5b6020026020010181905250836003600481106200148957fe5b6020020151816003815181106200149c57fe5b6020026020010181905250620014ba85828562001aaf60201b60201c565b9150509392505050565b8060036000848152602001908152602001600020819055505050565b60008062001508731d3b2638a7cc9f2cb3d298a3da7a90b67e5506ed62000d6d60201b60201c565b1115620015b457731d3b2638a7cc9f2cb3d298a3da7a90b67e5506ed600160006101000a81548173ffffffffffffffffffffffffffffffffffffffff021916908373ffffffffffffffffffffffffffffffffffffffff160217905550620015aa6040518060400160405280600b81526020017f6574685f6d61696e6e65740000000000000000000000000000000000000000008152506200204360201b60201c565b6001905062001aac565b6000620015db73c03a2615d5efaf5f49f60b7bb6583eaec212fdf162000d6d60201b60201c565b1115620016875773c03a2615d5efaf5f49f60b7bb6583eaec212fdf1600160006101000a81548173ffffffffffffffffffffffffffffffffffffffff021916908373ffffffffffffffffffffffffffffffffffffffff1602179055506200167d6040518060400160405280600c81526020017f6574685f726f707374656e3300000000000000000000000000000000000000008152506200204360201b60201c565b6001905062001aac565b6000620016ae73b7a07bcf2ba2f2703b24c0691b5278999c59ac7e62000d6d60201b60201c565b11156200175a5773b7a07bcf2ba2f2703b24c0691b5278999c59ac7e600160006101000a81548173ffffffffffffffffffffffffffffffffffffffff021916908373ffffffffffffffffffffffffffffffffffffffff160217905550620017506040518060400160405280600981526020017f6574685f6b6f76616e00000000000000000000000000000000000000000000008152506200204360201b60201c565b6001905062001aac565b60006200178173146500cfd35b22e4a392fe0adc06de1a1368ed4862000d6d60201b60201c565b11156200182d5773146500cfd35b22e4a392fe0adc06de1a1368ed48600160006101000a81548173ffffffffffffffffffffffffffffffffffffffff021916908373ffffffffffffffffffffffffffffffffffffffff160217905550620018236040518060400160405280600b81526020017f6574685f72696e6b6562790000000000000000000000000000000000000000008152506200204360201b60201c565b6001905062001aac565b60006200185473a2998efd205fb9d4b4963afb70778d6354ad3a4162000d6d60201b60201c565b1115620019005773a2998efd205fb9d4b4963afb70778d6354ad3a41600160006101000a81548173ffffffffffffffffffffffffffffffffffffffff021916908373ffffffffffffffffffffffffffffffffffffffff160217905550620018f66040518060400160405280600a81526020017f6574685f676f65726c69000000000000000000000000000000000000000000008152506200204360201b60201c565b6001905062001aac565b600062001927736f485c8bf6fc43ea212e93bbf8ce046c7f1cb47562000d6d60201b60201c565b11156200198d57736f485c8bf6fc43ea212e93bbf8ce046c7f1cb475600160006101000a81548173ffffffffffffffffffffffffffffffffffffffff021916908373ffffffffffffffffffffffffffffffffffffffff1602179055506001905062001aac565b6000620019b47320e12a1f859b3feae5fb2a0a32c18f5a65555bbf62000d6d60201b60201c565b111562001a1a577320e12a1f859b3feae5fb2a0a32c18f5a65555bbf600160006101000a81548173ffffffffffffffffffffffffffffffffffffffff021916908373ffffffffffffffffffffffffffffffffffffffff1602179055506001905062001aac565b600062001a417351efaf4c8b3c9afbd5ab9f4bbc82784ab6ef8faa62000d6d60201b60201c565b111562001aa7577351efaf4c8b3c9afbd5ab9f4bbc82784ab6ef8faa600160006101000a81548173ffffffffffffffffffffffffffffffffffffffff021916908373ffffffffffffffffffffffffffffffffffffffff1602179055506001905062001aac565b600090505b90565b60008073ffffffffffffffffffffffffffffffffffffffff16600160009054906101000a900473ffffffffffffffffffffffffffffffffffffffff1673ffffffffffffffffffffffffffffffffffffffff16148062001b405750600062001b3e600160009054906101000a900473ffffffffffffffffffffffffffffffffffffffff1662000d6d60201b60201c565b145b1562001b5a5762001b58600062000d7860201b60201c565b505b600160009054906101000a900473ffffffffffffffffffffffffffffffffffffffff1673ffffffffffffffffffffffffffffffffffffffff166338cc48316040518163ffffffff1660e01b8152600401602060405180830381600087803b15801562001bc557600080fd5b505af115801562001bda573d6000803e3d6000fd5b505050506040513d602081101562001bf157600080fd5b810190808051906020019092919050505073ffffffffffffffffffffffffffffffffffffffff166000809054906101000a900473ffffffffffffffffffffffffffffffffffffffff1673ffffffffffffffffffffffffffffffffffffffff161462001d3e57600160009054906101000a900473ffffffffffffffffffffffffffffffffffffffff1673ffffffffffffffffffffffffffffffffffffffff166338cc48316040518163ffffffff1660e01b8152600401602060405180830381600087803b15801562001cc157600080fd5b505af115801562001cd6573d6000803e3d6000fd5b505050506040513d602081101562001ced57600080fd5b81019080805190602001909291905050506000806101000a81548173ffffffffffffffffffffffffffffffffffffffff021916908373ffffffffffffffffffffffffffffffffffffffff1602179055505b60008060009054906101000a900473ffffffffffffffffffffffffffffffffffffffff1673ffffffffffffffffffffffffffffffffffffffff16632ef3accc86856040518363ffffffff1660e01b81526004018080602001838152602001828103825284818151815260200191508051906020019080838360005b8381101562001dd657808201518184015260208101905062001db9565b50505050905090810190601f16801562001e045780820380516001836020036101000a031916815260200191505b509350505050602060405180830381600087803b15801562001e2557600080fd5b505af115801562001e3a573d6000803e3d6000fd5b505050506040513d602081101562001e5157600080fd5b81019080805190602001909291905050509050823a02670de0b6b3a76400000181111562001e86576000801b9150506200203c565b606062001e99856200205f60201b60201c565b90506000809054906101000a900473ffffffffffffffffffffffffffffffffffffffff1673ffffffffffffffffffffffffffffffffffffffff1663c55c1cb68360008985896040518663ffffffff1660e01b8152600401808581526020018060200180602001848152602001838103835286818151815260200191508051906020019080838360005b8381101562001f3f57808201518184015260208101905062001f22565b50505050905090810190601f16801562001f6d5780820380516001836020036101000a031916815260200191505b50838103825285818151815260200191508051906020019080838360005b8381101562001fa857808201518184015260208101905062001f8b565b50505050905090810190601f16801562001fd65780820380516001836020036101000a031916815260200191505b5096505050505050506020604051808303818588803b15801562001ff957600080fd5b505af11580156200200e573d6000803e3d6000fd5b50505050506040513d60208110156200202657600080fd5b8101908080519060200190929190505050925050505b9392505050565b80600290805190602001906200205b9291906200257f565b5050565b6060620020716200211a60201b60201c565b6200207b62002606565b62002094816104006200212660201b62002f571760201c565b620020aa816200217360201b62002fa11760201c565b60008090505b8351811015620020f657620020e8848281518110620020cb57fe5b6020026020010151836200218960201b62002faf1790919060201c565b8080600101915050620020b0565b506200210d81620021bd60201b62002fd41760201c565b8060000151915050919050565b60405180590338823950565b60008190506000602082816200213857fe5b06146200215357602081816200214a57fe5b06602003810190505b808360200181815250506040518084526000815281810160405250505050565b62002186816004620021d360201b60201c565b50565b6200219e8260028351620021fb60201b60201c565b620021b881836200238360201b620031431790919060201c565b505050565b620021d0816007620021d360201b60201c565b50565b620021f7601f60058360ff16901b17836200244360201b620031ee1790919060201c565b5050565b6017811162002230576200222a8160058460ff16901b60ff1617846200244360201b620031ee1790919060201c565b6200237e565b60ff811162002281576200225d601860058460ff16901b17846200244360201b620031ee1790919060201c565b6200227a816001856200248c60201b6200322e179092919060201c565b506200237d565b61ffff8111620022d357620022af601960058460ff16901b17846200244360201b620031ee1790919060201c565b620022cc816002856200248c60201b6200322e179092919060201c565b506200237c565b63ffffffff8111620023275762002303601a60058460ff16901b17846200244360201b620031ee1790919060201c565b62002320816004856200248c60201b6200322e179092919060201c565b506200237b565b67ffffffffffffffff81116200237a576200235b601b60058460ff16901b17846200244360201b620031ee1790919060201c565b62002378816008856200248c60201b6200322e179092919060201c565b505b5b5b5b5b505050565b6200238d62002606565b82602001518360000151518351011115620023ce57620023cd836002620023c0866020015186516200250660201b60201c565b026200252460201b60201c565b5b60008060008451905085518051602081830101945086518101825260208701935050505b60208110620024175781518352602083019250602082019150602081039050620023f2565b60006001826020036101000a039050801983511681855116818117865250508694505050505092915050565b816020015160018360000151510111156200247257620024718260028460200151026200252460201b60201c565b5b815180516020818301018381536001820183525050505050565b6200249662002606565b836020015184600001515183011115620024d557620024d4846002620024c78760200151866200250660201b60201c565b026200252460201b60201c565b5b60006001836101000a0390508451805184818301018684198251161781528582018352505050849150509392505050565b6000818311156200251a578290506200251e565b8190505b92915050565b6060826000015190506200253f83836200212660201b60201c565b6200255183826200238360201b60201c565b50505050565b60405180608001604052806004905b6060815260200190600190039081620025665790505090565b828054600181600116156101000203166002900490600052602060002090601f016020900481019282601f10620025c257805160ff1916838001178555620025f3565b82800160010185558215620025f3579182015b82811115620025f2578251825591602001919060010190620025d5565b5b50905062002602919062002620565b5090565b604051806040016040528060608152602001600081525090565b6200264591905b808211156200264157600081600090555060010162002627565b5090565b90565b61356580620026586000396000f3fe6080604052600436106100865760003560e01c8063853828b611610059578063853828b6146102ff578063b69ef8a81461032a578063c1602dd714610355578063dc34b0aa14610384578063e68c24ae146103af57610086565b8063044987341461008b57806316e5fee01461009557806327dc297e146100c457806338bbfa5014610196575b600080fd5b6100936103fd565b005b3480156100a157600080fd5b506100aa6105d4565b604051808215151515815260200191505060405180910390f35b3480156100d057600080fd5b50610194600480360360408110156100e757600080fd5b81019080803590602001909291908035906020019064010000000081111561010e57600080fd5b82018360208201111561012057600080fd5b8035906020019184600183028401116401000000008311171561014257600080fd5b91908080601f016020809104026020016040519081016040528093929190818152602001838380828437600081840152601f19601f8201169050808301925050505050505091929192905050506105e7565b005b3480156101a257600080fd5b506102fd600480360360608110156101b957600080fd5b8101908080359060200190929190803590602001906401000000008111156101e057600080fd5b8201836020820111156101f257600080fd5b8035906020019184600183028401116401000000008311171561021457600080fd5b91908080601f016020809104026020016040519081016040528093929190818152602001838380828437600081840152601f19601f8201169050808301925050505050505091929192908035906020019064010000000081111561027757600080fd5b82018360208201111561028957600080fd5b803590602001918460018302840111640100000000831117156102ab57600080fd5b91908080601f016020809104026020016040519081016040528093929190818152602001838380828437600081840152601f19601f82011690508083019250505050505050919291929050505061062a565b005b34801561030b57600080fd5b50610314610742565b6040518082815260200191505060405180910390f35b34801561033657600080fd5b5061033f6107fb565b6040518082815260200191505060405180910390f35b34801561036157600080fd5b5061036a610801565b604051808215151515815260200191505060405180910390f35b34801561039057600080fd5b50610399610ce7565b6040518082815260200191505060405180910390f35b6103fb600480360360408110156103c557600080fd5b8101908080359060200190929190803573ffffffffffffffffffffffffffffffffffffffff169060200190929190505050610ced565b005b6402540be4008034101561041057600080fd5b60001515600760003373ffffffffffffffffffffffffffffffffffffffff1673ffffffffffffffffffffffffffffffffffffffff16815260200190815260200160002060009054906101000a900460ff161515146104d6576040517f08c379a000000000000000000000000000000000000000000000000000000000815260040180806020018281038252601a8152602001807f43757272656e74206164647265737320697320696e2070616c7900000000000081525060200191505060405180910390fd5b64174876e8003410156104e857600080fd5b6008543411156104f757600080fd5b6001600760003373ffffffffffffffffffffffffffffffffffffffff1673ffffffffffffffffffffffffffffffffffffffff16815260200190815260200160002060006101000a81548160ff021916908315150217905550660e35fa931a00006008600082825403925050819055506000349050806008600082825401925050819055507f79f2583b0099055c19887b52f17379021335aa8da188941490e5979061047c2d60405180806020018281038252602b815260200180613404602b913960400191505060405180910390a16105d08133610ced565b5050565b600960149054906101000a900460ff1681565b610626828260006040519080825280601f01601f1916602001820160405280156106205781602001600182028038833980820191505090505b5061062a565b5050565b610632610e87565b73ffffffffffffffffffffffffffffffffffffffff163373ffffffffffffffffffffffffffffffffffffffff161461066957600080fd5b60006002836040516020018082805190602001908083835b602083106106a45780518252602082019150602081019050602083039250610681565b6001836020036101000a0380198251168184511680821785525050505050509050019150506040516020818303038152906040528051906020012060001c816106e957fe5b06905080600a819055507f773fe15cbe09cda6207c0411280700712ef21972f6af259ae4d5edcf09bdbebf8185604051808381526020018281526020019250505060405180910390a161073c84826111a4565b50505050565b6000600960009054906101000a900473ffffffffffffffffffffffffffffffffffffffff1673ffffffffffffffffffffffffffffffffffffffff163373ffffffffffffffffffffffffffffffffffffffff161461079e57600080fd5b6000600854905060006008819055503373ffffffffffffffffffffffffffffffffffffffff166108fc829081150290604051600060405180830381858888f193505050501580156107f3573d6000803e3d6000fd5b508091505090565b60085481565b60006001600760003373ffffffffffffffffffffffffffffffffffffffff1673ffffffffffffffffffffffffffffffffffffffff16815260200190815260200160002060006101000a81548160ff02191690831515021790556108cc576040517f08c379a00000000000000000000000000000000000000000000000000000000081526004018080602001828103825260158152602001807f506c61796572206973206e6f7420696e20706c6179000000000000000000000081525060200191505060405180910390fd5b6001151560056000600660003373ffffffffffffffffffffffffffffffffffffffff1673ffffffffffffffffffffffffffffffffffffffff16815260200190815260200160002054815260200190815260200160002060020160019054906101000a900460ff1615151461098b576040517f08c379a00000000000000000000000000000000000000000000000000000000081526004018080602001828103825260258152602001806134d66025913960400191505060405180910390fd5b6000600760003373ffffffffffffffffffffffffffffffffffffffff1673ffffffffffffffffffffffffffffffffffffffff16815260200190815260200160002060006101000a81548160ff0219169083151502179055506000600660003373ffffffffffffffffffffffffffffffffffffffff1673ffffffffffffffffffffffffffffffffffffffff168152602001908152602001600020549050610a2f6132d4565b600560008381526020019081526020016000206040518060a001604052908160008201548152602001600182015481526020016002820160009054906101000a900460ff161515151581526020016002820160019054906101000a900460ff161515151581526020016002820160029054906101000a900473ffffffffffffffffffffffffffffffffffffffff1673ffffffffffffffffffffffffffffffffffffffff1673ffffffffffffffffffffffffffffffffffffffff1681525050905060008160000151905060008090506000836020015190506000846080015190506001821415610b95576001600960146101000a81548160ff021916908315150217905550600284029250826008600082825403925050819055508073ffffffffffffffffffffffffffffffffffffffff166108fc849081150290604051600060405180830381858888f19350505050158015610b8f573d6000803e3d6000fd5b50610bb5565b6000600960146101000a81548160ff021916908315150217905550600092505b7fb368579ab31d44db5086f93b80f61a9f45b51e2898d8e770f77224ba3f84d174600960149054906101000a900460ff16856001604051808415151515815260200183815260200182151515158152602001935050505060405180910390a16005600087815260200190815260200160002060008082016000905560018201600090556002820160006101000a81549060ff02191690556002820160016101000a81549060ff02191690556002820160026101000a81549073ffffffffffffffffffffffffffffffffffffffff02191690555050600660003373ffffffffffffffffffffffffffffffffffffffff1673ffffffffffffffffffffffffffffffffffffffff16815260200190815260200160002060009055600960149054906101000a900460ff16965050505050505090565b600a5481565b6000809050600062030d4090503073ffffffffffffffffffffffffffffffffffffffff1631610d346040518060600160405280602b81526020016134ab602b9139836111f2565b1115610d8a577fc4dc360d0a9c0677a3379ae0a3d81e887f761e65fdf3d7e00859d1bcd3c4738960405180806020018281038252604781526020018061342f6047913960600191505060405180910390a1610e81565b7fc4dc360d0a9c0677a3379ae0a3d81e887f761e65fdf3d7e00859d1bcd3c473896040518080602001828103825260358152602001806134766035913960400191505060405180910390a16000610de38360018461158c565b905080600660003373ffffffffffffffffffffffffffffffffffffffff1673ffffffffffffffffffffffffffffffffffffffff168152602001908152602001600020819055507fc4dc360d0a9c0677a3379ae0a3d81e887f761e65fdf3d7e00859d1bcd3c473896040518080602001828103825260368152602001806134fb6036913960400191505060405180910390a1610e7f818686611b27565b505b50505050565b60008073ffffffffffffffffffffffffffffffffffffffff16600160009054906101000a900473ffffffffffffffffffffffffffffffffffffffff1673ffffffffffffffffffffffffffffffffffffffff161480610f0f57506000610f0d600160009054906101000a900473ffffffffffffffffffffffffffffffffffffffff16611cd7565b145b15610f2057610f1e6000611ce2565b505b600160009054906101000a900473ffffffffffffffffffffffffffffffffffffffff1673ffffffffffffffffffffffffffffffffffffffff166338cc48316040518163ffffffff1660e01b8152600401602060405180830381600087803b158015610f8a57600080fd5b505af1158015610f9e573d6000803e3d6000fd5b505050506040513d6020811015610fb457600080fd5b810190808051906020019092919050505073ffffffffffffffffffffffffffffffffffffffff166000809054906101000a900473ffffffffffffffffffffffffffffffffffffffff1673ffffffffffffffffffffffffffffffffffffffff16146110fd57600160009054906101000a900473ffffffffffffffffffffffffffffffffffffffff1673ffffffffffffffffffffffffffffffffffffffff166338cc48316040518163ffffffff1660e01b8152600401602060405180830381600087803b15801561108257600080fd5b505af1158015611096573d6000803e3d6000fd5b505050506040513d60208110156110ac57600080fd5b81019080805190602001909291905050506000806101000a81548173ffffffffffffffffffffffffffffffffffffffff021916908373ffffffffffffffffffffffffffffffffffffffff1602179055505b6000809054906101000a900473ffffffffffffffffffffffffffffffffffffffff1673ffffffffffffffffffffffffffffffffffffffff1663c281d19e6040518163ffffffff1660e01b815260040160206040518083038186803b15801561116457600080fd5b505afa158015611178573d6000803e3d6000fd5b505050506040513d602081101561118e57600080fd5b8101908080519060200190929190505050905090565b80600560008481526020019081526020016000206001018190555060016005600084815260200190815260200160002060020160016101000a81548160ff0219169083151502179055505050565b60008073ffffffffffffffffffffffffffffffffffffffff16600160009054906101000a900473ffffffffffffffffffffffffffffffffffffffff1673ffffffffffffffffffffffffffffffffffffffff16148061127a57506000611278600160009054906101000a900473ffffffffffffffffffffffffffffffffffffffff16611cd7565b145b1561128b576112896000611ce2565b505b600160009054906101000a900473ffffffffffffffffffffffffffffffffffffffff1673ffffffffffffffffffffffffffffffffffffffff166338cc48316040518163ffffffff1660e01b8152600401602060405180830381600087803b1580156112f557600080fd5b505af1158015611309573d6000803e3d6000fd5b505050506040513d602081101561131f57600080fd5b810190808051906020019092919050505073ffffffffffffffffffffffffffffffffffffffff166000809054906101000a900473ffffffffffffffffffffffffffffffffffffffff1673ffffffffffffffffffffffffffffffffffffffff161461146857600160009054906101000a900473ffffffffffffffffffffffffffffffffffffffff1673ffffffffffffffffffffffffffffffffffffffff166338cc48316040518163ffffffff1660e01b8152600401602060405180830381600087803b1580156113ed57600080fd5b505af1158015611401573d6000803e3d6000fd5b505050506040513d602081101561141757600080fd5b81019080805190602001909291905050506000806101000a81548173ffffffffffffffffffffffffffffffffffffffff021916908373ffffffffffffffffffffffffffffffffffffffff1602179055505b6000809054906101000a900473ffffffffffffffffffffffffffffffffffffffff1673ffffffffffffffffffffffffffffffffffffffff16632ef3accc84846040518363ffffffff1660e01b81526004018080602001838152602001828103825284818151815260200191508051906020019080838360005b838110156114fc5780820151818401526020810190506114e1565b50505050905090810190601f1680156115295780820380516001836020036101000a031916815260200191505b509350505050602060405180830381600087803b15801561154957600080fd5b505af115801561155d573d6000803e3d6000fd5b505050506040513d602081101561157357600080fd5b8101908080519060200190929190505050905092915050565b6000808311801561159e575060208311155b6115a757600080fd5b600a84029350606060016040519080825280601f01601f1916602001820160405280156115e35781602001600182028038833980820191505090505b5090508360f81b816000815181106115f757fe5b60200101907effffffffffffffffffffffffffffffffffffffffffffffffffffffffffffff1916908160001a905350606060206040519080825280601f01601f19166020018201604052801561165c5781602001600182028038833980820191505090505b509050606060206040519080825280601f01601f1916602001820160405280156116955781602001600182028038833980820191505090505b50905060006116a2611cf3565b905060208352424118600143034018602084015260208252806020830152606060206040519080825280601f01601f1916602001820160405280156116f65781602001600182028038833980820191505090505b509050886020820152606060086040519080825280601f01601f1916602001820160405280156117355781602001600182028038833980820191505090505b5090506117488260186008846000612010565b5061175161331d565b604051806080016040528087815260200188815260200186815260200184815250905060006117b66040518060400160405280600681526020017f72616e646f6d0000000000000000000000000000000000000000000000000000815250838c61206f565b9050606060086040519080825280601f01601f1916602001820160405280156117ee5781602001600182028038833980820191505090505b50905060208401517f0100000000000000000000000000000000000000000000000000000000000000810460278301537e01000000000000000000000000000000000000000000000000000000000000810460268301537d010000000000000000000000000000000000000000000000000000000000810460258301537c0100000000000000000000000000000000000000000000000000000000810460248301537b01000000000000000000000000000000000000000000000000000000810460238301537a010000000000000000000000000000000000000000000000000000810460228301537901000000000000000000000000000000000000000000000000008104602183015378010000000000000000000000000000000000000000000000008104602083015350611b1482828560016004811061192d57fe5b602002015160028760006004811061194157fe5b60200201516040518082805190602001908083835b602083106119795780518252602082019150602081019050602083039250611956565b6001836020036101000a038019825116818451168082178552505050505050905001915050602060405180830381855afa1580156119bb573d6000803e3d6000fd5b5050506040513d60208110156119d057600080fd5b8101908080519060200190929190505050876002600481106119ee57fe5b60200201516040516020018085805190602001908083835b60208310611a295780518252602082019150602081019050602083039250611a06565b6001836020036101000a03801982511681845116808217855250505050505090500184805190602001908083835b60208310611a7a5780518252602082019150602081019050602083039250611a57565b6001836020036101000a03801982511681845116808217855250505050505090500183815260200182805190602001908083835b60208310611ad15780518252602082019150602081019050602083039250611aae565b6001836020036101000a038019825116818451168082178552505050505050905001945050505050604051602081830303815290604052805190602001206123dc565b8199505050505050505050509392505050565b81600560008581526020019081526020016000206000018190555060016005600085815260200190815260200160002060020160006101000a81548160ff021916908315150217905550806005600085815260200190815260200160002060020160026101000a81548173ffffffffffffffffffffffffffffffffffffffff021916908373ffffffffffffffffffffffffffffffffffffffff1602179055507f0c457e259dd611aa51fc5b8f8b996de09aaedc524462a3e88c3e32f86d5bea728360056000868152602001908152602001600020600001546005600087815260200190815260200160002060020160009054906101000a900460ff166005600088815260200190815260200160002060020160029054906101000a900473ffffffffffffffffffffffffffffffffffffffff16600560008981526020019081526020016000206001015460405180868152602001858152602001841515151581526020018373ffffffffffffffffffffffffffffffffffffffff1673ffffffffffffffffffffffffffffffffffffffff1681526020018281526020019550505050505060405180910390a1505050565b6000813b9050919050565b6000611cec6123f8565b9050919050565b60008073ffffffffffffffffffffffffffffffffffffffff16600160009054906101000a900473ffffffffffffffffffffffffffffffffffffffff1673ffffffffffffffffffffffffffffffffffffffff161480611d7b57506000611d79600160009054906101000a900473ffffffffffffffffffffffffffffffffffffffff16611cd7565b145b15611d8c57611d8a6000611ce2565b505b600160009054906101000a900473ffffffffffffffffffffffffffffffffffffffff1673ffffffffffffffffffffffffffffffffffffffff166338cc48316040518163ffffffff1660e01b8152600401602060405180830381600087803b158015611df657600080fd5b505af1158015611e0a573d6000803e3d6000fd5b505050506040513d6020811015611e2057600080fd5b810190808051906020019092919050505073ffffffffffffffffffffffffffffffffffffffff166000809054906101000a900473ffffffffffffffffffffffffffffffffffffffff1673ffffffffffffffffffffffffffffffffffffffff1614611f6957600160009054906101000a900473ffffffffffffffffffffffffffffffffffffffff1673ffffffffffffffffffffffffffffffffffffffff166338cc48316040518163ffffffff1660e01b8152600401602060405180830381600087803b158015611eee57600080fd5b505af1158015611f02573d6000803e3d6000fd5b505050506040513d6020811015611f1857600080fd5b81019080805190602001909291905050506000806101000a81548173ffffffffffffffffffffffffffffffffffffffff021916908373ffffffffffffffffffffffffffffffffffffffff1602179055505b6000809054906101000a900473ffffffffffffffffffffffffffffffffffffffff1673ffffffffffffffffffffffffffffffffffffffff1663abaa5f3e6040518163ffffffff1660e01b815260040160206040518083038186803b158015611fd057600080fd5b505afa158015611fe4573d6000803e3d6000fd5b505050506040513d6020811015611ffa57600080fd5b8101908080519060200190929190505050905090565b606060008285019050808451101561202757600080fd5b600086602001905060008460200190505b8688602001018210156120605781890151808288015250602082019150602081019050612038565b85935050505095945050505050565b60008073ffffffffffffffffffffffffffffffffffffffff16600160009054906101000a900473ffffffffffffffffffffffffffffffffffffffff1673ffffffffffffffffffffffffffffffffffffffff1614806120f7575060006120f5600160009054906101000a900473ffffffffffffffffffffffffffffffffffffffff16611cd7565b145b15612108576121066000611ce2565b505b600160009054906101000a900473ffffffffffffffffffffffffffffffffffffffff1673ffffffffffffffffffffffffffffffffffffffff166338cc48316040518163ffffffff1660e01b8152600401602060405180830381600087803b15801561217257600080fd5b505af1158015612186573d6000803e3d6000fd5b505050506040513d602081101561219c57600080fd5b810190808051906020019092919050505073ffffffffffffffffffffffffffffffffffffffff166000809054906101000a900473ffffffffffffffffffffffffffffffffffffffff1673ffffffffffffffffffffffffffffffffffffffff16146122e557600160009054906101000a900473ffffffffffffffffffffffffffffffffffffffff1673ffffffffffffffffffffffffffffffffffffffff166338cc48316040518163ffffffff1660e01b8152600401602060405180830381600087803b15801561226a57600080fd5b505af115801561227e573d6000803e3d6000fd5b505050506040513d602081101561229457600080fd5b81019080805190602001909291905050506000806101000a81548173ffffffffffffffffffffffffffffffffffffffff021916908373ffffffffffffffffffffffffffffffffffffffff1602179055505b6060600460405190808252806020026020018201604052801561231c57816020015b60608152602001906001900390816123075790505b5090508360006004811061232c57fe5b60200201518160008151811061233e57fe5b60200260200101819052508360016004811061235657fe5b60200201518160018151811061236857fe5b60200260200101819052508360026004811061238057fe5b60200201518160028151811061239257fe5b6020026020010181905250836003600481106123aa57fe5b6020020151816003815181106123bc57fe5b60200260200101819052506123d285828561294f565b9150509392505050565b8060036000848152602001908152602001600020819055505050565b600080612418731d3b2638a7cc9f2cb3d298a3da7a90b67e5506ed611cd7565b11156124ba57731d3b2638a7cc9f2cb3d298a3da7a90b67e5506ed600160006101000a81548173ffffffffffffffffffffffffffffffffffffffff021916908373ffffffffffffffffffffffffffffffffffffffff1602179055506124b16040518060400160405280600b81526020017f6574685f6d61696e6e6574000000000000000000000000000000000000000000815250612eb1565b6001905061294c565b60006124d973c03a2615d5efaf5f49f60b7bb6583eaec212fdf1611cd7565b111561257b5773c03a2615d5efaf5f49f60b7bb6583eaec212fdf1600160006101000a81548173ffffffffffffffffffffffffffffffffffffffff021916908373ffffffffffffffffffffffffffffffffffffffff1602179055506125726040518060400160405280600c81526020017f6574685f726f707374656e330000000000000000000000000000000000000000815250612eb1565b6001905061294c565b600061259a73b7a07bcf2ba2f2703b24c0691b5278999c59ac7e611cd7565b111561263c5773b7a07bcf2ba2f2703b24c0691b5278999c59ac7e600160006101000a81548173ffffffffffffffffffffffffffffffffffffffff021916908373ffffffffffffffffffffffffffffffffffffffff1602179055506126336040518060400160405280600981526020017f6574685f6b6f76616e0000000000000000000000000000000000000000000000815250612eb1565b6001905061294c565b600061265b73146500cfd35b22e4a392fe0adc06de1a1368ed48611cd7565b11156126fd5773146500cfd35b22e4a392fe0adc06de1a1368ed48600160006101000a81548173ffffffffffffffffffffffffffffffffffffffff021916908373ffffffffffffffffffffffffffffffffffffffff1602179055506126f46040518060400160405280600b81526020017f6574685f72696e6b656279000000000000000000000000000000000000000000815250612eb1565b6001905061294c565b600061271c73a2998efd205fb9d4b4963afb70778d6354ad3a41611cd7565b11156127be5773a2998efd205fb9d4b4963afb70778d6354ad3a41600160006101000a81548173ffffffffffffffffffffffffffffffffffffffff021916908373ffffffffffffffffffffffffffffffffffffffff1602179055506127b56040518060400160405280600a81526020017f6574685f676f65726c6900000000000000000000000000000000000000000000815250612eb1565b6001905061294c565b60006127dd736f485c8bf6fc43ea212e93bbf8ce046c7f1cb475611cd7565b111561284157736f485c8bf6fc43ea212e93bbf8ce046c7f1cb475600160006101000a81548173ffffffffffffffffffffffffffffffffffffffff021916908373ffffffffffffffffffffffffffffffffffffffff1602179055506001905061294c565b60006128607320e12a1f859b3feae5fb2a0a32c18f5a65555bbf611cd7565b11156128c4577320e12a1f859b3feae5fb2a0a32c18f5a65555bbf600160006101000a81548173ffffffffffffffffffffffffffffffffffffffff021916908373ffffffffffffffffffffffffffffffffffffffff1602179055506001905061294c565b60006128e37351efaf4c8b3c9afbd5ab9f4bbc82784ab6ef8faa611cd7565b1115612947577351efaf4c8b3c9afbd5ab9f4bbc82784ab6ef8faa600160006101000a81548173ffffffffffffffffffffffffffffffffffffffff021916908373ffffffffffffffffffffffffffffffffffffffff1602179055506001905061294c565b600090505b90565b60008073ffffffffffffffffffffffffffffffffffffffff16600160009054906101000a900473ffffffffffffffffffffffffffffffffffffffff1673ffffffffffffffffffffffffffffffffffffffff1614806129d7575060006129d5600160009054906101000a900473ffffffffffffffffffffffffffffffffffffffff16611cd7565b145b156129e8576129e66000611ce2565b505b600160009054906101000a900473ffffffffffffffffffffffffffffffffffffffff1673ffffffffffffffffffffffffffffffffffffffff166338cc48316040518163ffffffff1660e01b8152600401602060405180830381600087803b158015612a5257600080fd5b505af1158015612a66573d6000803e3d6000fd5b505050506040513d6020811015612a7c57600080fd5b810190808051906020019092919050505073ffffffffffffffffffffffffffffffffffffffff166000809054906101000a900473ffffffffffffffffffffffffffffffffffffffff1673ffffffffffffffffffffffffffffffffffffffff1614612bc557600160009054906101000a900473ffffffffffffffffffffffffffffffffffffffff1673ffffffffffffffffffffffffffffffffffffffff166338cc48316040518163ffffffff1660e01b8152600401602060405180830381600087803b158015612b4a57600080fd5b505af1158015612b5e573d6000803e3d6000fd5b505050506040513d6020811015612b7457600080fd5b81019080805190602001909291905050506000806101000a81548173ffffffffffffffffffffffffffffffffffffffff021916908373ffffffffffffffffffffffffffffffffffffffff1602179055505b60008060009054906101000a900473ffffffffffffffffffffffffffffffffffffffff1673ffffffffffffffffffffffffffffffffffffffff16632ef3accc86856040518363ffffffff1660e01b81526004018080602001838152602001828103825284818151815260200191508051906020019080838360005b83811015612c5b578082015181840152602081019050612c40565b50505050905090810190601f168015612c885780820380516001836020036101000a031916815260200191505b509350505050602060405180830381600087803b158015612ca857600080fd5b505af1158015612cbc573d6000803e3d6000fd5b505050506040513d6020811015612cd257600080fd5b81019080805190602001909291905050509050823a02670de0b6b3a764000001811115612d05576000801b915050612eaa565b6060612d1085612ecb565b90506000809054906101000a900473ffffffffffffffffffffffffffffffffffffffff1673ffffffffffffffffffffffffffffffffffffffff1663c55c1cb68360008985896040518663ffffffff1660e01b8152600401808581526020018060200180602001848152602001838103835286818151815260200191508051906020019080838360005b83811015612db4578082015181840152602081019050612d99565b50505050905090810190601f168015612de15780820380516001836020036101000a031916815260200191505b50838103825285818151815260200191508051906020019080838360005b83811015612e1a578082015181840152602081019050612dff565b50505050905090810190601f168015612e475780820380516001836020036101000a031916815260200191505b5096505050505050506020604051808303818588803b158015612e6957600080fd5b505af1158015612e7d573d6000803e3d6000fd5b50505050506040513d6020811015612e9457600080fd5b8101908080519060200190929190505050925050505b9392505050565b8060029080519060200190612ec7929190613344565b5050565b6060612ed5612f4b565b612edd6133c4565b612ee981610400612f57565b612ef281612fa1565b60008090505b8351811015612f3457612f27848281518110612f1057fe5b602002602001015183612faf90919063ffffffff16565b8080600101915050612ef8565b50612f3e81612fd4565b8060000151915050919050565b60405180590338823950565b6000819050600060208281612f6857fe5b0614612f815760208181612f7857fe5b06602003810190505b808360200181815250506040518084526000815281810160405250505050565b612fac816004612fe2565b50565b612fbc8260028351613003565b612fcf818361314390919063ffffffff16565b505050565b612fdf816007612fe2565b50565b612fff601f60058360ff16901b17836131ee90919063ffffffff16565b5050565b6017811161302f5761302a8160058460ff16901b60ff1617846131ee90919063ffffffff16565b61313e565b60ff811161307057613054601860058460ff16901b17846131ee90919063ffffffff16565b61306a8160018561322e9092919063ffffffff16565b5061313d565b61ffff81116130b257613096601960058460ff16901b17846131ee90919063ffffffff16565b6130ac8160028561322e9092919063ffffffff16565b5061313c565b63ffffffff81116130f6576130da601a60058460ff16901b17846131ee90919063ffffffff16565b6130f08160048561322e9092919063ffffffff16565b5061313b565b67ffffffffffffffff811161313a57613122601b60058460ff16901b17846131ee90919063ffffffff16565b6131388160088561322e9092919063ffffffff16565b505b5b5b5b5b505050565b61314b6133c4565b8260200151836000015151835101111561317b5761317a83600261317486602001518651613295565b026132b1565b5b60008060008451905085518051602081830101945086518101825260208701935050505b602081106131c2578151835260208301925060208201915060208103905061319f565b60006001826020036101000a039050801983511681855116818117865250508694505050505092915050565b81602001516001836000015151011115613214576132138260028460200151026132b1565b5b815180516020818301018381536001820183525050505050565b6132366133c4565b8360200151846000015151830111156132645761326384600261325d876020015186613295565b026132b1565b5b60006001836101000a0390508451805184818301018684198251161781528582018352505050849150509392505050565b6000818311156132a7578290506132ab565b8190505b92915050565b6060826000015190506132c48383612f57565b6132ce8382613143565b50505050565b6040518060a001604052806000815260200160008152602001600015158152602001600015158152602001600073ffffffffffffffffffffffffffffffffffffffff1681525090565b60405180608001604052806004905b606081526020019060019003908161332c5790505090565b828054600181600116156101000203166002900490600052602060002090601f016020900481019282601f1061338557805160ff19168380011785556133b3565b828001600101855582156133b3579182015b828111156133b2578251825591602001919060010190613397565b5b5090506133c091906133de565b5090565b604051806040016040528060608152602001600081525090565b61340091905b808211156133fc5760008160009055506001016133e4565b5090565b9056fe436f696e666c697053657428292066756e6374696f6e207375636365737366756c7920657865637574656450726f7661626c6520717565727920776173204e4f542073656e642c20706c656173652061646420736f6d652045544820746f20636f766572207468652071756572792066656550726f7661626c65207175657279207761732073656e742c207374616e64696e6720627920666f722074686520616e737765722e2e68747470733a2f2f726f707374656e2e65746865727363616e2e696f2f63686172742f676173707269636552616e646f6d206e756d6265722068617665206e6f74206265656e207265747572656e642e50726f7661626c65207175657279207761732073656e742c207374616e64696e6720627920666f722074686520616e737765722e2e2ea265627a7a72315820e71f8102b20a573cc3583cafcacceaa50851494421bd03ea6e37274b5a5a556f64736f6c634300050c003250726f7661626c6520717565727920776173204e4f542073656e642c20706c656173652061646420736f6d652045544820746f20636f766572207468652071756572792066656550726f7661626c65207175657279207761732073656e742c207374616e64696e6720627920666f722074686520616e737765722e2e68747470733a2f2f726f707374656e2e65746865727363616e2e696f2f63686172742f676173707269636550726f7661626c65207175657279207761732073656e742c207374616e64696e6720627920666f722074686520616e737765722e2e2e",
  "source": "import \"./provableAPI.sol\";\r\n\r\npragma solidity  0.5.12;\r\n\r\ncontract Coinflip is usingProvable{\r\n\r\n  struct Player {\r\n    uint betPlayerBalance;\r\n    uint bettingRes;\r\n    bool isWating;\r\n    bool resultReturned;\r\n    address adrPlaying;\r\n  }\r\n  \r\n  mapping(bytes32 => Player) private players_byID;\r\n  mapping(address => bytes32) private bytesId_addr; // change pointer from bool to bytes32\r\n  mapping(address => bool) private isPlaying;\r\n\r\n  uint public balance;\r\n  address internal owner;\r\n  bool public win_loose;\r\n  uint256 constant NUM_RANDOM_BYTES_REQUESTED = 1;\r\n  uint256 public latestNumber;\r\n\r\n  constructor() public payable {\r\n    owner = msg.sender;\r\n    balance = msg.value;\r\n    update(0, 0x03992365B313433960EaD13FC56A9E650b6a07bb);\r\n  }\r\n\r\n  modifier costs(uint256 cost){\r\n      require(msg.value >= cost);\r\n      _;\r\n  }\r\n\r\n  modifier onlyOwner(){\r\n      require(msg.sender == owner);\r\n      _;\r\n  }\r\n\r\n  event LogNewProvableQuery(string description);\r\n  event generatedRandomNumber(uint256 randomNumber, bytes32 Player_ID);\r\n\r\n  event coinFlipped(string);\r\n  event coindflipResult(bool result, uint Player_Bet, bool Callback_Returned);\r\n  event PlayerInserted(bytes32 ID, uint bettingBalance, bool Active, address AddressPlaying, uint256 Result);\r\n  //event testRandomExecuted(string, bytes32);\r\n  //event returnedPlayer(uint balance, bool Active, address AddressPlaying);\r\n  //event callbackReturned(uint balance, uint256 randomNumber, bool Active);\r\n  //event PlayerAfterInserted(bytes32 ID, uint bettingBalance, uint256 Result, bool Active, address AddressPlaying);\r\n\r\n  function coinflipSet() public payable costs(10000000000 wei){\r\n    require(isPlaying[msg.sender] == false, \"Current address is in paly\");\r\n    require(msg.value >= 100000000000 wei);\r\n    require(msg.value <= balance);\r\n    isPlaying[msg.sender] = true;\r\n    balance -= 4000000000000000;  // Payment for generating rundom number\r\n\r\n    uint256 betBalance = msg.value;\r\n    balance += betBalance;\r\n    emit coinFlipped(\"CoinflipSet() function successfuly executed\");\r\n    update(betBalance, msg.sender);\r\n  }\r\n\r\n  function update(uint _betBalance, address _addressPlayig) payable public {\r\n    uint256 QUERY_EXECUTION_DELAY = 0;\r\n    uint256 GAS_FOR_CALLBACK = 200000;\r\n    //bytes32 queryId = testRandom(); // Comment this line on the Ropsten network.\r\n\r\n    if (provable_getPrice(\"https://ropsten.etherscan.io/chart/gasprice\", GAS_FOR_CALLBACK) > address(this).balance) {\r\n      emit LogNewProvableQuery(\"Provable query was NOT send, please add some ETH to cover the query fee\");\r\n    } else {\r\n      emit LogNewProvableQuery(\"Provable query was sent, standing by for the answer..\");\r\n        bytes32 queryId = provable_newRandomDSQuery(\r\n        QUERY_EXECUTION_DELAY,\r\n        NUM_RANDOM_BYTES_REQUESTED,\r\n        GAS_FOR_CALLBACK\r\n      );\r\n    bytesId_addr[msg.sender] = queryId;\r\n    emit LogNewProvableQuery(\"Provable query was sent, standing by for the answer...\");\r\n    insertPlayer(queryId, _betBalance, _addressPlayig);\r\n    }\r\n  }\r\n  /* function testRandom() public returns(bytes32){\r\n   bytes32 newqueryId = bytes32(keccak256(abi.encodePacked(msg.sender)));\r\n   emit testRandomExecuted(\"The testRandom() function is successfuly executed \", newqueryId);\r\n   __callback(newqueryId, \"0\", bytes(\"test\"));\r\n   return newqueryId;\r\n  } */\r\n\r\n  function __callback(bytes32 _queryId, string memory _result, bytes memory _proof) public {\r\n    require(msg.sender == provable_cbAddress());\r\n    uint256 randomNumber = uint256(keccak256(abi.encodePacked(_result))) % 2;\r\n    latestNumber = randomNumber;\r\n    emit generatedRandomNumber(randomNumber, _queryId);\r\n    updateResult(_queryId, randomNumber);\r\n  }\r\n\r\n  function updateResult(bytes32 id, uint256 randomNumber) private {\r\n    players_byID[id].bettingRes = randomNumber;\r\n    players_byID[id].resultReturned = true;\r\n    //emit callbackReturned(players_byID[id].betPlayerBalance, players_byID[id].bettingRes, players_byID[id].isWating);\r\n  }\r\n\r\n  function insertPlayer(bytes32 _queryId, uint _betBalance, address _addressPlayig) private {\r\n    players_byID[_queryId].betPlayerBalance = _betBalance;\r\n    players_byID[_queryId].isWating = true;\r\n    players_byID[_queryId].adrPlaying = _addressPlayig;\r\n    emit PlayerInserted(_queryId, players_byID[_queryId].betPlayerBalance, players_byID[_queryId].isWating, players_byID[_queryId].adrPlaying, players_byID[_queryId].bettingRes);\r\n    //testInsertedPlayer(_queryId);  //Comment out when deploying to Ropsten network\r\n  }\r\n\r\n  /* function testInsertedPlayer(bytes32 _id) public {\r\n    Player memory dummyPlayer;\r\n    dummyPlayer = players_byID[_id];\r\n    emit PlayerAfterInserted(_id, dummyPlayer.betPlayerBalance, dummyPlayer.bettingRes, dummyPlayer.isWating, dummyPlayer.adrPlaying);\r\n  } */\r\n\r\n  function coinflipGet() public returns(bool){\r\n    require(isPlaying[msg.sender] = true, \"Player is not in play\");\r\n    require(players_byID[bytesId_addr[msg.sender]].resultReturned == true, \"Random number have not been returend.\");\r\n    isPlaying[msg.sender] = false;\r\n    bytes32 qId = bytesId_addr[msg.sender];\r\n    Player memory oldPlayer;\r\n    oldPlayer = players_byID[qId];\r\n\r\n    uint betBalance = oldPlayer.betPlayerBalance;\r\n    uint toTransafer = 0;\r\n    uint256 luck = oldPlayer.bettingRes;\r\n    address payable returningPlayer = address(uint160(oldPlayer.adrPlaying));\r\n\r\n    if(luck == 1){\r\n      win_loose = true;\r\n      toTransafer = betBalance *2;\r\n      balance -= toTransafer;\r\n      returningPlayer.transfer(toTransafer);\r\n    } else {\r\n        win_loose = false;\r\n        toTransafer = 0;\r\n    }\r\n  //  emit returnedPlayer(oldPlayer.betPlayerBalance, oldPlayer.isWating, oldPlayer.adrPlaying);\r\n    emit coindflipResult(win_loose, betBalance, true);\r\n    delete(players_byID[qId]);\r\n    delete(bytesId_addr[msg.sender]);\r\n    return win_loose ;\r\n  }\r\n\r\n  function withdrawAll() public onlyOwner returns(uint){\r\n    uint toTransfer = balance;\r\n    balance = 0;\r\n    msg.sender.transfer(toTransfer);\r\n    return toTransfer;\r\n  }\r\n}\r\n",
  "sourcePath": "C:/Users/Rostyslav/Documents/Programming/Coinflipping/contracts/Coinflip.sol",
  "compiler": {
    "name": "solc",
    "version": "0.5.12+commit.7709ece9.Emscripten.clang"
  },
  "schemaVersion": "3.0.16",
  "updatedAt": "2020-11-06T18:52:22.068Z",
  "devdoc": {
    "methods": {
      "__callback(bytes32,string)": {
        "details": "The following `__callback` functions are just placeholders ideally     meant to be defined in child contract when proofs are used.     The function bodies simply silence compiler warnings."
      }
    }
  },
  "userdoc": {
    "methods": {}
  }
}